S0150000536973745F4F705F737461626C652E6D6F74D1
S1050000715A2F
S1130004C51DD11D0947DD1DE91D45478147F51D62
S1130014011E0D1E5B19B318AE57FFFFCE56FFFF2A
S1130024191E251E311EB7583D1E18447A4DAD497C
S1130034491EFFFFFFFFFFFF551E611E6D1E791E43
S1130044851E911E9D1EA91EB51EFFFFFFFFFFFF07
S1130054FFFFFFFFFFFFFFFFFFFFFFFFFFFFFFFFA8
S1130064FFFFFFFFFFFFFFFFFFFFFFFFFFFFFFFF98
S10F0074FFFFFFFFFFFFFFFFFFFFC11EA7
S10700C0EFFFE085E5
S10D00C4000000000000000000002E
S11300D8201AC81500C81600C8173AC81800C81945
S11300E800300300B800FCD81E008F12F99DF0D42C
S11300F8F061E8EC2A01008F13F99DF0D4F061E86F
S1130108EC2A0100AF14F9BDF0040300BDF0BF14DC
S1130118F9BDF0446F1771FF61E3EC2A0100F6BFE3
S113012814F9AF14F9BDF0B80030E803B802FC4F75
S11301386000ADF0B812BDF0B800300A00B802FC97
S1130148C16000ADF0B81088109DF09815AF14F98F
S1130158BDF0B800306400B802FC4F6000ADF0B8E0
S11301680EBDF0B800300A00B802FCC16000ADF062
S1130178B80C880C9DF09816AF14F9BDF0B800308F
S11301880A00B802FC4F6000ADF0B80ABDF0B80030
S1130198300A00B802FCC16000ADF0B80888089DB8
S11301A8F09818AF14F9BDF0B800300A00B802FC92
S11301B8C16000ADF0B80688069DF09819C8000122
S11301C8C80204C9F01A00AEF8BDF0041A00BDF064
S11301D804FBFFB804FC0B0700FCF91E00ECE90063
S11301E8002008300A00B800FCD81E00C80002C865
S11301F80200C9F00800AEF8BDF0040800BDF0B173
S1130208B804FC0B070088079DF04AF00461E8EC89
S11302181E0200E512F988079DF04AF00261E8EC35
S11302282E0200F512F988079DF04AF00161E8EC06
S1130238460200E513F9F6BF14F9EC490200F51378
S1130248F9FCF91E00ECEB01002016C81000C811D7
S113025800C8122EC81300303200B800FCD81E00A3
S1130268C80003C80201C9F01600AEF8BDF00416B0
S113027800BDF004FEFFB804FC0B0700A814BDF091
S1130288311EBDF0B814BDF0B800306400B802FCEB
S1130298476000ADF0B80EBDF0B800300A00B802EF
S11302A8FC4B6000ADF0B80C880C9DF09810A814B5
S11302B8BDF0B800300A00B802FC476000ADF0B8E1
S11302C80ABDF0B800300A00B802FC4B6000ADF07B
S11302D8B80888089DF09811A814BDF0B800300A31
S11302E800B802FC4B6000ADF0B80688069DF09893
S11302F813C80001C80203C9F01600AEF8BDF00423
S11303081600BDF004FAFFB804FC0B0700FCF91E44
S113031800EC5F02002008C80700306400B800FC45
S1130328D81E0088079DF04AF00261F3EC6A0300C6
S1130338C80000C80202C9F00800AEF8BDF00408FD
S113034800BDF0B1B804FC0B070088079DF0A4F0C9
S11303588DF098079DF04AF00361E8EC6A0300C841
S11303680700FCF91E00EC220300200EC80B3EC84F
S11303780A3CF6B80CC80800C80004C80203C9F04F
S11303880E00AEF8BDF0040E00BDF004FAFFB80488
S1130398FC0B070088089DF0D4F061E8ECAF03007B
S11303A8F6B806ECB80400C80004C80200C9F00E88
S11303B800AEF8BDF0040E00BDF004FBFFB804FC69
S11303C80B07008FDCF99DF0D4F061E8EC600400C1
S11303D888099DF1880A9DF08DF14BF061E8EC04E1
S11303E80400F5DDF98FDDF99DF0CDF100ADF004E1
S11303F8DEF916F19BE5E8F9EC60040088099DF143
S1130408880B9DF08DF14BF061E8EC1D0400E5DCF0
S1130418F9EC6004008FDDF99DF04AF00961F3EC12
S11304285D04008FDDF99DF0CDF10088099DF2ADE2
S1130438F004DEF9168DF29B8FDDF99DF0A4F08DA2
S1130448F09FDDF99DF0CDF100ADF004DEF916F171
S11304589BEC600400E5E9F98FE8F99DF0D4F061BC
S1130468F8EC8C04008FDCF99DF0D4F061F8EC8C86
S11304780400F5DDF9F5E8F9F5DCF930DEF9B80C36
S1130488ECB204008FDCF99DF0D4F061E8ECA6042A
S1130498008FE9F99DF0D4F061F8ECB20400F5DCC2
S11304A8F9F5E8F9F5E9F9F6B80CA80CBDF0B806C1
S11304B8A806BDF0100ED7200C300A00B800FCD8EE
S11304C81E00FC720300ADF0B80844000061E8ECBB
S11304D8E40400FCF91E0000ECC10400A808BDF007
S11304E8BDF2FAF28B9DF0CDF100ADF044620061EB
S11304F8F8EC1D0500ADF044630061F8EC27050035
S1130508ADF044610061E8EC310500C80700C80B90
S113051801EC350500C80701C80B01EC350500C816
S11305280702C80B01EC350500C80B0000880BD185
S113053861F8EC6D0500C80000C80202C9F00C009F
S1130548AEF8BDF0040C00BDF004FBFFB804FC0BCE
S11305580700C80004C80202309068B804FC0B07FE
S113056800EC7C0500C80004C80202309368B80493
S1130578FC0B0700FCF91E00ECC104002008C807A6
S113058832302800B800FCD81E00C80005C8020094
S1130598C9F00800AEF8BDF0040800BDF0B1B80415
S11305A8FC0B0700FCF91E00EC8905002006FC4B37
S11305B82000FC410600C80000FC480600C80001F1
S11305C8FC480600C80002FC480600C80003FC48B2
S11305D80600C80004FC480600C80007FC480600DA
S11305E8C80005FC480600C80008FC48060030BFDF
S11305F804B800306400B802F6B804FCDC2000300B
S11306085102B800306400B802F6B804FCDC2000DB
S113061830D800B800306400B802E6B804FCDC2026
S11306280030E901B800306400B802F6B804FCDC14
S11306382000FC4C22001006D7F512FACDF000D7A2
S113064861EFC161CF2004C803018F12FA9DF04AFB
S1130658F01361F3ECFF06008F12FA9DF07051005D
S1130668BDE8880A9DF0CDF100ADF001BDF0041697
S1130678F9BDF0BDF2FAF2ABBDF0BDF4FAF461FADB
S1130688ADE801BDF204EAF9BDF2BDF4FAF4ADF047
S1130698BB8F12FA9DF0CDF100ADF001BDF004EA74
S11306A8F9BDF0BDF2FAF2ABBDF0FAF0AC04BDF05E
S11306B8AEF8BDF4040A00B800ADF0BDF2FAF26178
S11306C8FA8DF098038F12FA9DF0CDF100ADF00188
S11306D8BDF004EAF9BDF0BDF4FAF4ABBDF0880A44
S11306E89DF2ADF0BDF4FAF48DF29B8F12FA9DF0F1
S11306F8A4F08DF09F12FA88039DF0100461EFC0F6
S113070861CFD72008C80700EC8D0700880770510F
S113071800BDF001BDF004EAF9BDF0BDF2FAF2AB98
S1130728BDF0BDF2FAF28B9DF1880C9DF08DF14B72
S1130738F061E8EC8607008807705100BDF001BD40
S1130748F004EAF9BDF0BDF2FAF2ABBDF0FAF0AC90
S113075802BDF2880E705100BDF001B802BDF0B8B8
S11307680406F2BDF0BDF2FAF2ABBDF0A810BDF27A
S1130778B800ADF0BDF2FAF261FAEC9F0700880701
S11307889DF08198078F12FA9DF088074BF061D885
S1130798EC140700CDF0041008D7FC6D4200FCB639
S11307A84300CDF000D7FC4B4300CDF000D7200226
S11307B8FC4B4300A806BDF0B800FCE24300CDF0B2
S11307C8001002D72002A806BDF0B800FCE24300DE
S11307D8CDF0001002D7FC764300CDF000D72002FC
S11307E830A207BF18FA30AE07BF1AFA30B607BFEF
S11307F81CFA30CC07BF1EFA30DE07BF20FA301AC5
S1130808FABF16FA3014FAB800BDF01002D7CDF0CA
S113081800D72002C80100C9F00DFFADF0BDF2FAFF
S1130828F28B9DF05AF080D4F061E8EC3D08008822
S1130838016C019801C9F003FFADF0BDF4FAF48B23
S11308489DF05AF002D4F061E8EC5B080088016C72
S1130858029801C9F003FFADF0BDF2FAF28B9DF0E6
S11308685AF004D4F061E8EC79080088016C049823
S113087801A806BDF088019DF2ADF0BDF4FAF48D2F
S1130888F29BCDF0001002D72002A806BDF0BDF2FD
S1130898FAF28B9DF09800705100BDF0440200619B
S11308A8F8ECE90800ADF044030061F8EC0F090026
S11308B8ADF044010061E8EC350900C9F00DFFAD65
S11308C8F0BDF2FAF28B9DF05AF080D4F061E8ECB6
S11308D8E20800C80101EC390900C80100EC390933
S11308E800C9F003FFADF0BDF2FAF28B9DF05AF0A7
S11308F802D4F061E8EC080900C80101EC390900E8
S1130908C80100EC390900C9F003FFADF0BDF2FAE3
S1130918F28B9DF05AF004D4F061E8EC2E0900C87B
S11309280101EC390900C80100EC390900C80100CB
S11309380088019DF09800CDF0001002D720023005
S11309481608BF26FA301A08BF28FA309008BF2ABA
S1130958FA3028FABF24FA3022FAB800BDF010029F
S1130968D7717BFACDF000D7717AFACDF000D77140
S11309787BFACDF000D72002306909BF30FA303253
S1130988FABF2EFA302CFAB800BDF01002D7FC7268
S11309983900CDF000D7FC833900CDF000D7FCA690
S11309A84000CDF000D7FC013F00CDF000D7200473
S11309B8A808BDF4BDF6FAF6ABBDF0FAF4AC02BD76
S11309C8F2ADF0B800ADF2B802FC8F3E00CDF000F5
S11309D81004D72004C80033A808BDF0B802FC8F5F
S11309E83B00CDF0001004D72002A806BDF0BDF2EC
S11309F8FAF2ABBDF0B800FC233400CDF0001002CD
S1130A08D72002A806BDF0BDF2FAF28B9DF098003B
S1130A18FC932E00CDF0001002D72004A808BDF0E6
S1130A28BDF2FAF28B9DF09800C80201FC3E2D003D
S1130A38CDF0001004D72006A80ABDF0B804BDF014
S1130A48BDF2FAF28B9DF09800F6B802FC36270046
S1130A58A804A1BDF0BDF2FAF28B9DF09800E6B8A7
S1130A6802FC362700A804040200BDF0BDF2FAF225
S1130A788B9DF09800300200B802FC362700A804C9
S1130A88040300BDF0BDF2FAF28B9DF09800300328
S1130A9800B802FC362700CDF0001006D72006A8BF
S1130AA80ABDF0B804BDF0BDF2FAF28B9DF09800CF
S1130AB8E6B802FCA32800A804A1BDF0BDF2FAF22E
S1130AC88B9DF09800300200B802FCA32800A8040B
S1130AD8040200BDF0BDF2FAF28B9DF098003003D9
S1130AE800B802FCA32800A804040300BDF0BDF26A
S1130AF8FAF28B9DF09800300400B802FCA3280099
S1130B08A804040400BDF0BDF2FAF28B9DF098002D
S1130B18300500B802FCA32800CDF0001006D72049
S1130B2806A80ABDF0B804BDF0BDF2FAF28B9DF038
S1130B389800300200B802FC472B00A804A1BDF0BD
S1130B48BDF2FAF28B9DF09800300300B802FC471E
S1130B582B00A804040200BDF0BDF2FAF28B9DF04C
S1130B689800300400B802FC472B00A804040300D2
S1130B78BDF0BDF2FAF28B9DF09800300500B80282
S1130B88FC472B00CDF0001006D72002309609BF91
S1130B9836FA309E09BF38FA30A609BF3AFA30AEA1
S1130BA809BF3CFA30B609BF4CFA30DB09BF4AFA30
S1130BB830F009BF48FA30090ABF46FA30220ABFA2
S1130BC844FA303E0ABF3EFA30A50ABF40FA30273D
S1130BD80BBF42FA3038FABF34FA3032FAB800BDE3
S1130BE8F01002D7C9F022FFADF0BDF4FAF48B9DE2
S1130BF8F25AF2FDADF08DF29BC9F02CFFADF0BDB9
S1130C08F4FAF48B9DF25AF2DFADF08DF29BC9F041
S1130C180DFFADF0BDF4FAF48B9DF26AF201ADF06C
S1130C288DF29BC9F002FFADF0BDF4FAF48B9DF28E
S1130C386AF202ADF08DF29BC9F00CFFADF0BDF481
S1130C48FAF48B9DF26AF220ADF08DF29BCDF000A0
S1130C58D72002A806BDF0BDF2FAF28B9DF09801E8
S1130C68705100BDF044010061F8ECA90C00ADF02E
S1130C7844020061F8ECC20C00ADF044000061F8D5
S1130C88EC900C00ECD80C00C9F00DFFADF0BDF4ED
S1130C98FAF48B9DF25AF2FEADF08DF29BECD80C6F
S1130CA800C9F002FFADF0BDF4FAF48B9DF25AF2DC
S1130CB8FDADF08DF29BECD80C00C9F00CFFADF043
S1130CC8BDF4FAF48B9DF25AF2DFADF08DF29B007D
S1130CD8CDF0001002D72002A806BDF0BDF2FAF24A
S1130CE88B9DF09801705100BDF044010061F8EC4F
S1130CF82E0D00ADF044020061F8EC470D00ADF094
S1130D0844000061F8EC150D00EC5D0D00C9F00D10
S1130D18FFADF0BDF4FAF48B9DF26AF201ADF08DEB
S1130D28F29BEC5D0D00C9F002FFADF0BDF4FAF4DE
S1130D388B9DF26AF202ADF08DF29BEC5D0D00C959
S1130D48F00CFFADF0BDF4FAF48B9DF26AF220AD1D
S1130D58F08DF29B00CDF0001002D72002A806BD4A
S1130D68F0BDF2FAF28B9DF09801705100BDF04489
S1130D78010061F8ECD20D00ADF044020061F8EC1A
S1130D88140E00ADF044000061F8EC9A0D00EC5329
S1130D980E00C9F00DFFC9F20DFFADF2BDF4FAF46F
S1130DA88B9DF25AF2017AF2FF5AF2015AF201AD1E
S1130DB8F0BDF4FAF48B9DF35AF3FE8DF36BF29DB8
S1130DC8F2ADF08DF29BEC530E00C9F202FFC9F0AC
S1130DD802FFADF0BDF4FAF48B9DF0311A9DF05A80
S1130DE8F0017AF0FF5AF0015AF0018DF061019D8B
S1130DF8F0ADF2BDF4FAF48B9DF15AF1FD8DF16B6F
S1130E08F09DF0ADF28DF09BEC530E00C9F20CFF8F
S1130E18C9F00CFFADF0BDF4FAF48B9DF0315A9D86
S1130E28F05AF0017AF0FF5AF0015AF0018DF031CE
S1130E38599DF0ADF2BDF4FAF48B9DF15AF1DF8DB2
S1130E48F16BF09DF0ADF28DF09B00CDF000100237
S1130E58D7200230EC0BBF52FA30590CBF54FA3089
S1130E68DE0CBF56FA30630DBF58FA3054FABF503F
S1130E78FA304EFAB800BDF01002D7E58FFACDF07B
S1130E8800D7A804BDF0BF8AFACDF000D7F58FFAD1
S1130E98CDF000D7F6BF74FAF6BF76FAF6BF78FA43
S1130EA8F6BF6EFAF6BF70FAF6BF72FACDF000D745
S1130EB861EFC161CF20368F8EFA9DF04AF001614F
S1130EC8E8ECF00E00AF80FABDF0BF7AFAAF82FA10
S1130ED8BDF0BF7CFAAF84FABDF0BF7EFAAF86FAE4
S1130EE8BDF0BF88FAF58EFA8F8FFA9DF04AF001AB
S1130EF861E8EC2D1100AF76FABDF0BF78FAAF7453
S1130F08FABDF0BF76FAAF70FABDF0BF72FAAF6EF1
S1130F18FABDF0BF70FAC80005C80201C9F036006E
S1130F28AEF8BDF0043600BDF004FCFFB804FC0BB9
S1130F380700AF8AFABDF0A83416ADF027B830BD63
S1130F48F2B81A8831317B9DF0981C981DA81ABDF7
S1130F58F0B800A81CBDF2B802FC485D008DF09DF5
S1130F68F48DF19DF58DF29DF68DF39DF78DF49832
S1130F78008DF598018DF698028DF798033000C01E
S1130F88B804307F44B806FCCF5A008DF09DF48D28
S1130F98F19DF58DF29DF68DF39DF78DF48DF58D0C
S1130FA8F68DF78DF098008DF198018DF298028DE9
S1130FB8F39803FC815E00ADF0B816ADF2B818A83A
S1130FC816BDF0B82EBDF2BF6EFABDF2AF72FABD0F
S1130FD8F0ADF226F0BDF0AF7AFABDF2ADF0DAF278
S1130FE8CEFB01BDF4AF78FABDF0ADF406F0BDF662
S1130FF8AF70FABDF001B814BDF0B82CAF6EFABDED
S1131008F0A82C06F0BDF2AF72FABDF0ADF206F00E
S1131018BDF2AF7CFABDF4ADF2DAF4CEFB01BDF05B
S1131028AF88FABDF4ADF0DAF4CEFB01BDF28DF36E
S1131038317A9DF0CDF100ADF006F2BDF0311FB864
S113104812BDF2B82A06F6BDE8AF70FABDF0B828AA
S1131058BDF2B81001B80EBDF0B81016F627BDF2EF
S1131068AF6EFABDF0ADF206F0BDF2AF72FABDF0A4
S1131078ADF206F0BDF0AF7EFABDF4ADF0DAF4CE11
S1131088FB01BDF2ADF201B80CBDF2B826AF88FA87
S1131098BDF0A826BDF2B800ADF0B802FC4F600060
S11310A8ADF0B82406E8BDF0BF74FABDF044010001
S11310B871FF61E3ECD31000C80005C80200306476
S11310C800B804FC0B0700EC2D1100AF74FABDF056
S11310D844000071FF61C8ECF41000C80005C802A0
S11310E800F6B804FC0B0700EC2D1100AF74FABD30
S11310F8F0B822BDF2B80A315DB808BDF0B80AA844
S11311082216A80A27B80A315DBDF0A80A06F0B865
S113111820BDF2B81EC80005C80200A81EBDF0B85C
S113112804FC0B0700CDF000103661EFC061CFD787
S1131138201EAF7AFABDF0B81CBDF2B81201B8107F
S1131148BDF4B812A81C16A81207B812315DBDF078
S1131158A81206F0B812A81C16A81207BDF2A822F5
S1131168BDF0BDF4FAF4ADF2BBA822040200BDF050
S1131178AF7CFABDF2B81ABDF4B80E01B80CBDF2D2
S1131188B80EA81A16A80E07B80E315DBDF2A80E3F
S113119806F2B80EA81A16A80E07BDF2ADF0BDF4F3
S11311A8FAF4ADF2BBA822040400BDF0AF7EFABD88
S11311B8F2B818BDF4B80A01B808BDF2B80AA818FC
S11311C816A80A07B80A315DBDF2A80A06F2B80AD9
S11311D8A81816A80A07BDF2ADF0BDF4FAF4ADF2EA
S11311E8BBA822040600BDF0AF88FABDF2B816BD4C
S11311F8F4B806312DB804BDF2B806315DB802A8BA
S11312080616A80227B802A81616A80207B80231BB
S11312183DB800BDF4B802BDF2B814BDF2ADF0BDDE
S1131228F4FAF4ADF2BBCDF000101ED72038A83C78
S1131238BDF0BDF2FAF2ABBDF2B836BDF0B8248801
S113124837317B9DF098269827A824BDF2B800A8CA
S113125826BDF0B802FC485D008DF09DF48DF19D2B
S1131268F58DF29DF68DF39DF78DF498008DF59824
S1131278018DF698028DF79803F6B80430C842B881
S113128806FCCF5A008DF09DF48DF19DF58DF29DED
S1131298F68DF39DF78DF48DF58DF68DF78DF09819
S11312A8008DF198018DF298028DF39803FC815E0C
S11312B800ADF0B820ADF2B822A820BDF2B834BD14
S11312C8F0BF80FAA83C040200BDF0BDF2FAF2AB0C
S11312D8BDF2B832BDF0B81C8833317B9DF0981E3E
S11312E8981FA81CBDF2B800A81EBDF0B802FC489F
S11312F85D008DF09DF48DF19DF58DF29DF68DF3D5
S11313089DF78DF498008DF598018DF698028DF768
S11313189803F6B80430C842B806FCCF5A008DF0DA
S11313289DF48DF19DF58DF29DF68DF39DF78DF469
S11313388DF58DF68DF78DF098008DF198018DF26D
S113134898028DF39803FC815E00ADF0B818ADF2F5
S1131358B81AA818BDF2B830BDF0BF82FAA83C0488
S11313680400BDF0BDF2FAF2ABBDF2B82EBDF0B880
S113137814882F317B9DF098169817A814BDF2B8DD
S113138800A816BDF0B802FC485D008DF09DF48DF0
S1131398F19DF58DF29DF68DF39DF78DF498008DF2
S11313A8F598018DF698028DF79803F6B80430C8BD
S11313B842B806FCCF5A008DF09DF48DF19DF58D51
S11313C8F29DF68DF39DF78DF48DF58DF68DF78DE1
S11313D8F098008DF198018DF298028DF39803FC32
S11313E8815E00ADF0B810ADF2B812A810BDF2B825
S11313F82CBDF0BF84FAA83C040600BDF0BDF2FA87
S1131408F2ABBDF2B82ABDF0B80C882B317B9DF045
S1131418980E980FA80CBDF2B800A80EBDF0B8023B
S1131428FC485D008DF09DF48DF19DF58DF29DF6DF
S11314388DF39DF78DF498008DF598018DF698023B
S11314488DF79803F6B804307A44B806FCCF5A00EE
S11314588DF09DF48DF19DF58DF29DF68DF39DF73C
S11314688DF48DF58DF68DF78DF098008DF198013A
S11314788DF298028DF39803FC815E00ADF0B808F4
S1131488ADF2B80AA808BDF2B828BDF0BF86FAE5DF
S11314988EFACDF0001038D7F6BF78FABDF0BF76D3
S11314A8FABDF0BF74FABDF0BF72FABDF0BF70FAAE
S11314B8BDF0BF6EFAF6BF88FAF6BF8AFAE6BF7ABD
S11314C8FA300500BF7CFAF6BF7EFAF58EFAF58F7E
S11314D8FACDF000D7200230A014BF5EFA30830E94
S11314E8BF60FA30950EBF62FA30B80EBF64FA30A6
S11314F89C0EBF66FA303811BF68FA303412BF6ADE
S1131508FA308A0EBF6CFA3060FABF5CFA305AFAC5
S1131518B800BDF01002D761EFC1C3C561CF200286
S1131528C9F0F000ADF0BDF4FAF48B9DF26AF20153
S1131538ADF08DF29BC9F0B601ADF0BDF2FAF2F64A
S1131548BBC9F0EDFFADF0BDF4FAF48B9DF26AF27D
S113155840ADF08DF29BC9F0E9FFADF0BDF4FAF4AB
S11315688B9DF26AF240ADF08DF29BC9F0EEFFADAF
S1131578F0BDF4FAF48B9DF26AF210ADF08DF29B93
S1131588C9F0EAFFADF0BDF4FAF48B9DF26AF210EB
S1131598ADF08DF29BC9F09001ADF0BDF2FAF2E620
S11315A8BBC9F09601ADF0BDF4FAF4300904BBC927
S11315B8F018FFADF0BDF2FAF2301F4EBBC9F06669
S11315C8FFADF0BDF4FAF4F6BBC9F2B801C9F0B83E
S11315D801ADF0BDF4FAF4ABBDF08DF05CFE9800FB
S11315E88DF15CFF9801A800BDF4ADF2BDF0FAF0EE
S11315F8ADF4BBC9F2BA01C9F0BA01ADF0BDF4FA51
S1131608F4ABBDF08DF05CFE9DEC8DF15CFF9DEDBF
S1131618ADF2BDF0FAF0ADECBBC9F2BE01C9F0BE43
S113162801ADF0BDF4FAF4ABBDF08DF06C089DEAA1
S11316388DF16C009DEBADF2BDF0FAF0ADEABBC9DB
S1131648F2BC01C9F0BC01ADF0BDF4FAF4ABBDF0D5
S11316588DF05CF79DE88DF15CFF9DE9ADF2BDF07E
S1131668FAF0ADE8BBC9F2B801C9F0B801ADF0BDF4
S1131678F4FAF4ABBDF08DF05CF79DF68DF15CFFE8
S11316889DF7ADF2BDF0FAF0ADF6BBC9F2BA01C9E7
S1131698F0BA01ADF0BDF4FAF4ABBDF08DF05CF72F
S11316A89DF48DF15CFF9DF5ADF2BDF0FAF0ADF45B
S11316B8BBC9F023FFC9F223FFADF2BDF4FAF48BE2
S11316C89DF25AF2FDADF0BDF4FAF48DF29BC9F027
S11316D803FFC9F203FFADF2BDF4FAF48B9DF25A8D
S11316E8F2FDADF0BDF4FAF48DF29B100261EFC483
S11316F8C2C061CFD7C9F4E1FFADF4BDF0FAF08BF5
S11317089DF65AF6BFADF4BDF28DF69BC9F4E5FF1C
S1131718ADF4BDF0FAF08B9DF65AF6BFADF4BDF208
S11317288DF69BC9F6BA01C9F4BA01ADF4BDF0FA55
S1131738F0ABBDF48DF46C019DF28DF56C009DF356
S1131748ADF6BDF0FAF0ADF2BBC9F4B201C9F2B21C
S113175801ADF2BDF0FAF0ABBDF28DF26C019DF073
S11317688DF36C009DF1ADF4BDF2FAF2ADF0BBD788
S1131778C9F4E2FFADF4BDF0FAF08B9DF65AF6EF2A
S1131788ADF4BDF28DF69BC9F4E6FFADF4BDF0FAF5
S1131798F08B9DF65AF6EFADF4BDF28DF69BC9F6C3
S11317A8BA01C9F4BA01ADF4BDF0FAF0ABBDF48DD9
S11317B8F46C089DF28DF56C009DF3ADF6BDF0FA5E
S11317C8F0ADF2BBC9F4B201C9F2B201ADF2BDF099
S11317D8FAF0ABBDF28DF26C089DF08DF36C009DB0
S11317E8F1ADF4BDF2FAF2ADF0BBD761EFC161CF50
S11317F82008A80EBDF0BDF2FAF28B9DF098074CB4
S11318086461E3EC161800CDF001EC5B180088075E
S11318189DF09F9AFAC9E866FF8F9AFA9DF0CDF178
S113182800C9F218FFADF2BDF4FAF4ABBDF2A1BDE4
S1131838F4ADF0DAF4CEFB01BDF2ADF2B8003064D9
S113184800B802FC476000ADF0B804BDF0FAE8BB8C
S1131858CDF000100861EFC061CFD72002A806BD03
S1131868F0BDF2FAF28B9DF098018F9AFA9DF098E8
S113187801CDF0001002D7CDF000D72002307F1838
S1131888BF94FA30F317BF96FA306318BF98FA304A
S113189896FABF92FA3090FAB800BDF01002D7FC5D
S11318A87B4D00FC305000CDF000D761CFC1C3C5DB
S11318B8C761DFC1C3C5C761EFC761CF20088F9D6A
S11318C8FA9DF0CDF100A6F0ADF0B800300A00B8EA
S11318D802FCC16000ADF0B8068F9CFA9DF0CDF112
S11318E800A80646F061F8EC3319008F9DFA9DF0C4
S11318F8CDF100C9F212FFADF2BDF4FAF48B9DF2FA
S1131908ADF0049EFA168DF29B8F9DFA9DF0CDF1F1
S113191800A6F0ADF0B800300A00B802FCC16000BF
S1131928ADF0B80488049DF09F9DFAC9F0E1FFADBD
S1131938F0BDF4FAF48B9DF25AF2F7ADF08DF29BF8
S1131948100861EFC661DFC6C4C2C061CFC6C4C295
S1131958C061FC61CFC1C3C5C761DFC1C3C561CF65
S11319682004AF64FCBDF044000061F8ECAE19003B
S1131978C9F210FFAF6AFCBDF0BDF4FAF48B9DF018
S1131988ADF2BDF4FAF48DF09BAF6AFCBDF0A6F09D
S1131998ADF0BF6AFCAF64FCBDF0B802BDF4B8009A
S11319A8B1BDF0BF64FC100461DFC4C2C061CFC61E
S11319B8C4C2C061FC2008A80CBDF0B8068F9DFA0B
S11319C89DF18F9CFA9DF08DF14BF061E8ECE019E4
S11319D800CDF000EC211A008F9CFA9DF0CDF100A7
S11319E8ADF0049EFA168B9DF2A806BDF0BDF4FA7C
S11319F8F48DF29B8F9CFA9DF0CDF100A6F0ADF02A
S1131A08B800300A00B802FCC16000ADF0B8048820
S1131A18049DF09F9CFACDF0001008D72002A80678
S1131A28BDF0B8008F9DFA9DF18F9CFA9DF0768DDC
S1131A38F1612E9DF2A800BDF0BDF4FAF48DF29B7D
S1131A48CDF0001002D761EFC1C3C761CFAEF8BDB6
S1131A58EE2018AEF8BDF0ADEE04EEFF16ADF0BB07
S1131A68BDF2ADEE04F0FF16ADF2BBADEE04F0FF2F
S1131A7816ABBDF0ADEE04F6FF16ADF0BBFAEEAC56
S1131A880ABDF0ADEE04FEFF16ADF0BBADEE04FEEC
S1131A98FF16ABBDF0B800FC036700ADEE04FDFF14
S1131AA8168DF09BADEE04FCFF12ADEE04FDFF14A1
S1131AB88981480000ADEE04FCFF168B9DF070513F
S1131AC800BDF2B6F2ADEE04FAFF16ADF2BBADEE10
S1131AD804F2FF168DF09BADEE04F3FF16F19BADF7
S1131AE8EE04F4FF16F19BADEE04F5FF16F19B8DA1
S1131AF8F09DE8CDE900CDEA00CDEB00CDF100A6DC
S1131B08F0ADF0311EBDF001BDF0AEF8BDF226F027
S1131B18BDF2BEF8040600BDF0040000BDF0ADEE51
S1131B2804F8FF16ADF0BBADEE04F8FF16ABBDF03C
S1131B38ADEE04FDFF168B705100BDF2ADF0B80098
S1131B48ADEE04FEFF16ABBDF0B802ADF2B804FC6E
S1131B58286700ADEE04FDFF168B705100BDF2AD91
S1131B68EE04F8FF16ABBDF006F2BDF0BDF2FAF2D2
S1131B78510D9BADEE04F8FF16ABBDF0ADEE04FCC1
S1131B88FF168B705100BDF2ADF0B800ADF2B8028B
S1131B98FCA65100CDF000ADEE04F6FF16ABBDF285
S1131BA8BEF8ADEE04EEFF16ABBDF2BEF8ADEEBE68
S1131BB8F861EFC6C2C061CFD761EFC1C3C761CFB7
S1131BC8AEF8BDEE2018AEF8BDF0ADEE04EEFF168B
S1131BD8ADF0BBBDF2ADEE04F0FF16ADF2BBADEE59
S1131BE804F0FF16ABBDF0ADEE04F6FF16ADF0BB86
S1131BF8FAEEAC0ABDF0ADEE04FEFF16ADF0BBADD7
S1131C08EE04FEFF16ABBDF0B800FC036700ADEEB2
S1131C1804FDFF168DF09BADEE04FCFF12ADEE043F
S1131C28FDFF14890C02480000ADEE04FCFF168B7E
S1131C389DF0705100BDF2B6F2ADEE04FAFF16AD98
S1131C48F2BBADEE04F2FF168DF09BADEE04F3FF8C
S1131C5816F19BADEE04F4FF16F19BADEE04F5FF0F
S1131C6816F19B8DF09DE8CDE900CDEA00CDEB009F
S1131C78CDF100A6F0ADF0311EBDF001BDF0AEF817
S1131C88BDF226F0BDF2BEF8040600BDF004000063
S1131C98BDF0ADEE04F8FF16ADF0BBADEE04F8FFF1
S1131CA816ABBDF0ADEE04FDFF168B705100BDF20E
S1131CB8ADF0B800ADEE04FEFF16ABBDF0B802AD52
S1131CC8F2B804FC286700ADEE04FDFF168B7051D2
S1131CD800BDF2ADEE04F8FF16ABBDF006F2BDF0A0
S1131CE8BDF2FAF2510D9BADEE04FDFF168B705157
S1131CF800BDF0A1BDF2ADEE04F8FF16ABBDF006D1
S1131D08F2BDF0BDF2FAF2510A9BADEE04F8FF16EB
S1131D18ABBDF0ADEE04FCFF168B705100BDF2AD07
S1131D28F0B800ADF2B802FCA65100CDF000ADEE5B
S1131D3804F6FF16ABBDF2BEF8ADEE04EEFF16AB2B
S1131D48BDF2BEF8ADEEBEF861EFC6C2C061CFD732
S1131D58200230A718BFACFA30BD19BFAEFA304E16
S1131D681ABFB0FA30C11BBFB2FA30241ABFB4FA92
S1131D7830AEFABFAAFA30A8FAB800BDF01002D7FC
S1131D88CDF000D7FCC24700D7FC694800D7200231
S1131D9830881DBFBAFA308C1DBFBCFA30911DBF04
S1131DA8BEFA30BCFABFB8FA30B6FAB800BDF010C3
S1131DB802D7717BFAFC255A00717AFAD761CFC130
S1131DC8C3C5C7C6C4C2C061FC61CFC1C3C5C7C649
S1131DD8C4C2C061FC61CFC1C3C5C7C6C4C2C061A7
S1131DE8FC61CFC1C3C5C7C6C4C2C061FC61CFC151
S1131DF8C3C5C7C6C4C2C061FC61CFC1C3C5C7C619
S1131E08C4C2C061FC61CFC1C3C5C7C6C4C2C06176
S1131E18FC61CFC1C3C5C7C6C4C2C061FC61CFC120
S1131E28C3C5C7C6C4C2C061FC61CFC1C3C5C7C6E8
S1131E38C4C2C061FC61CFC1C3C5C7C6C4C2C06146
S1131E48FC61CFC1C3C5C7C6C4C2C061FC61CFC1F0
S1131E58C3C5C7C6C4C2C061FC61CFC1C3C5C7C6B8
S1131E68C4C2C061FC61CFC1C3C5C7C6C4C2C06116
S1131E78FC61CFC1C3C5C7C6C4C2C061FC61CFC1C0
S1131E88C3C5C7C6C4C2C061FC61CFC1C3C5C7C688
S1131E98C4C2C061FC61CFC1C3C5C7C6C4C2C061E6
S1131EA8FC61CFC1C3C5C7C6C4C2C061FC61CFC190
S1131EB8C3C5C7C6C4C2C061FC61CFC1C3C5C7C658
S1131EC8C4C2C061FCFCC24700717AFAECD41E009B
S1131ED88F14FD9DF0CDF100ADF0314DBDF0046ED1
S1131EE8FCBDF2A804BDF0ADF2BDF4FAF4ADF0BB4C
S1131EF8D78F14FD9DF0CDF100ADF0314DBDF00448
S1131F0870FCBDF0BDF2FAF2300300BB008F14FD83
S1131F189DF0CDF100ADF0314DBDF00470FCBDF085
S1131F28BDF2FAF2ABBDF044030061F8EC151F00F2
S1131F38D72002A806BDF0B800FCD81E00FCF91E84
S1131F48001002D7A806BDF0BF58FCA808BDF0BF12
S1131F585AFCA804BDF0BF0EFDC1C3C7DBF8FF30AF
S1131F6858FC16ABBEF83000C6C1300EFD16ABC126
S1131F7830AAAAC130FFFFC130000FC130DEDEC174
S1131F8830BCBCC113BEF8C6C2C0D761EFC1C361BF
S1131F98CF2004AF54FCBDF0AF56FCBDF2ADF0BF8A
S1131FA808FDADF2BF0AFD300200BF00FD30CD1EB2
S1131FB8BFFCFC30CD1EBF0EFDC1C3C7C5DBF8FF97
S1131FC83054FC16ABBEF83000C6C1300EFD16AB5B
S1131FD8C113BEF8C4C6C2C0AF54FCBDF0B800AF4C
S1131FE856FCBDF0B802A80004FCFFBDF0A80261CD
S1131FF8D8A104FFFFBDF2ADF0BF54FCADF2BF564B
S1132008FCAF54FCBDF4AF56FCBDF6ADF4BF04FD03
S1132018ADF6BF06FDAF08FDBDE8AF0AFDBDEAADEC
S1132028E804CEFFBDF0ADEA61D8A104FFFFBDF21C
S1132038ADF0BF54FCADF2BF56FC100461EFC2C052
S113204861CFD761EFC161CF2008C80700EC7420C5
S1132058008807705100BDE8314DBDE80470FCBD2F
S1132068E8FAE8F6BB88079DE881980788074C08D2
S113207861E3EC592000F515FDF6BF54FC300F0060
S1132088BF56FCAF54FCBDF4AF56FCBDF63050FC53
S1132098B804BDF0B800C80200C8030088006BF497
S11320A89DF088016BF59DF188026BF69DF288031B
S11320B86BF79DF3ADF0BF54FCADF2BF56FCFC9337
S11320C81F00CF14FD09F50CFDCDF000100861EFD9
S11320D8C061CFD761EFC1C3C561CF20108F15FD93
S11320E89DF04AF00961E8ECFA2000CDF001EC42D9
S11320F822008F15FD9DF0CDF100AF54FCBDF2AF69
S113210856FCBDF4ADF0314DBDF00478FCBDF0BD16
S1132118F6FAF6ADF2BBFAF0ADF4BC028F15FD9DEC
S1132128F0CDF100ADF0314DBDF00472FCBDF2A864
S11321381EBDF0ADF2BDF4FAF4ADF0BB8F15FD9DF4
S1132148F0CDF100ADF0314DBDF00470FCBDF0BD33
S1132158F6FAF6300200BB8F15FD9DF0CDF100AD07
S1132168F0314DBDF0046CFCBDF2A81ABDF0ADF21F
S1132178BDF4FAF4ADF0BB8F15FD9DF0CDF100ADC3
S1132188F0314DBDF0046EFCBDF0BDF6FAF6300A30
S113219800BBAF54FCBDF6AF56FCBDE8A81ABDF0B1
S11321A8B800ADF6B802ADE8B804FC4C1F008F15B2
S11321B8FD9DF0705100BDF4AF54FCBDF0B80CAFF8
S11321C856FCBDF2B80EA80C04F2FFBDF0A80E61CF
S11321D8D8A104FFFFBDF2ADF4314DBDF40474FC85
S11321E8BDF4BDF6FAF6ADF0BBFAF4ADF2BC02AF3D
S11321F854FCBDEAAF56FCBDECA81CBDF0B806BD46
S1132208F2B8088807317B9DF0980A980BFBF8FF11
S1132218ADEA612908BDF0ADEC61D8B161290ABD08
S1132228F2ADF0BF54FCADF2BF56FC8F15FD9DF026
S1132238A4F08DF09F15FDCDF000101061EFC4C21D
S1132248C061CFD7E6BF00FDAF04FDBDF0AF06FD0A
S1132258BDF2ADF0BF10FDADF2BF12FDCF14FD0904
S11322683010FD16ABBEF861FCEC7122002002C8E8
S113227800098F15FD9DF0D4F061E8EC8F220088E9
S1132288009DF0EC972400C80100EC462300880167
S1132298705100BDF0314DBDF00470FCBDF0BDF2CD
S11322A8FAF2ABBDF044000061F8EC3F230088016A
S11322B8705100BDF0314DBDF0046EFCBDF0BDF4AD
S11322C8FAF4ABBDF044D18A71FF71C061D8EC0552
S11322D823008801705100BDF0314DBDF2046EFC3D
S11322E8BDF2BDF4FAF4ABBDF2B6F2ADF0314DBDBA
S11322F8F0046EFCBDF0BDF4FAF4ADF2BB880170D5
S11323085100BDF0314DBDF0046EFCBDF0BDF2FAD4
S1132318F2ABBDF044000071FF61F3EC3F23008889
S113232801705100BDF0314DBDF00470FCBDF0BD2D
S1132338F4FAF4300200BB88019DF08198018F15EE
S1132348FD9DF088014BF061D8EC962200C801008D
S1132358ECAB23008801705100BDF0314DBDF00491
S113236872FCBDF0BDF2FAF2ABBDF044010061E8C5
S1132378ECA423008801705100BDF0314DBDF00478
S113238870FCBDF0BDF4FAF4ABBDF044020061E8A2
S1132398ECA4230088019DF0EC97240088019DF0AB
S11323A88198018F15FD9DF088014BF061D8EC5C94
S11323B823008F0CFD9DF08198018F15FD9DF088F9
S11323C8014BF061D8ECD82300C80100ECF52300D8
S11323D8ECF5230088019DF08198018F15FD9DF08F
S11323E888014BF061D8ECF52300C801008801701E
S11323F85100BDF28F0CFD9DF0318FBDF0ADF2465A
S1132408F061F8EC2F24008801705100BDF0314DC3
S1132418BDF00470FCBDF0BDF2FAF2ABBDF04402AD
S11324280061E8ECDC23008801705100BDF28F0CD8
S1132438FD9DF0318FBDF0ADF246F061E8EC7024FB
S1132448008801705100BDF0314DBDF00470FCBD31
S1132458F0BDF4FAF4ABBDF044030061E8EC702479
S113246800CDF009EC97240088019DF09F0CFD88AD
S1132478019DF098008F15FD9DF088004BF061D800
S1132488EC932400CDF009EC97240088009DF0100B
S113249802D761EFC1C361CFBDF2AEF8041A00BE22
S11324A8F8ADF2C1C78EFC088EFDC1C5C33050FC1F
S11324B816AEF8BB8F14FD9DF4CDF500AF50FCBDEE
S11324C8F0AF52FCBDF2ADF4314DBDF40474FCBD63
S11324D8F4BDF6FAF6ADF0BBFAF4ADF2BC02FC7545
S11324E822008DF09F14FD9DF0CDF100ADF0314D2B
S11324F8BDF00474FCBDF0BDF2FAF2ABBDE8FAF02D
S1132508AC02BDEAADE8BF50FCADEABF52FCC9F06D
S1132518E2FFADF0BDF4FAF48B9DF25AF27FADF010
S1132528BDF68DF29B3050FC16ABBEF8C2C4C09EFB
S1132538FD089EFCC6C061FC61EFC2C061CFD72014
S11325480288064C2061F8EC5D250088064C0D6174
S1132558E8EC6F2500A808BDF0BDF2FAF251299BFA
S1132568E6B800EC2F270088064C3961F3EC9B256C
S11325780088064C2F61E3EC9B250088060CD09D4F
S1132588F2A808BDF0BDF4FAF48DF29BE6B800ECAD
S11325982F270088064C4661F3ECC9250088064CB1
S11325A84061E3ECC9250088060CCD9DF2A808BD5E
S11325B8F0BDF4FAF48DF29B300200B800EC2F273A
S11325C80088064C6661F3ECF7250088064C6061C8
S11325D8E3ECF7250088060CAD9DF2A808BDF0BD14
S11325E8F4FAF48DF29B300200B800EC2F2700882F
S11325F8064C4661E3EC25260088064C5A61F3EC48
S113260825260088060CCD9DF2A808BDF0BDF4FA75
S1132618F48DF29B300300B800EC2F270088064C99
S11326286661E3EC53260088064C7A61F3EC532682
S11326380088060CAD9DF2A808BDF0BDF4FAF48D2F
S1132648F29B300300B800EC2F2700880670510075
S1132658BDF0442E0061F8ECF62600ADF0442E00DF
S113266871FF61F3EC952600ADF0442B0061F8ECA2
S1132678BA2600ADF0442D0061F8ECC92600ADF08F
S1132688442A0061F8EC142700EC232700ADF04439
S11326983A0061F8EC052700ADF0445C0061F8EC01
S11326A8E72600ADF0442F0061F8ECD82600EC23AF
S11326B82700A808BDF0BDF2FAF2510A9BEC2A27BC
S11326C800A808BDF0BDF4FAF4510B9BEC2A2700CE
S11326D8A808BDF0BDF2FAF2510C9BEC2A2700A819
S11326E808BDF0BDF4FAF4510D9BEC2A2700A808A4
S11326F8BDF0BDF2FAF2512E9BEC2A2700A808BDC2
S1132708F0BDF4FAF4513A9BEC2A2700A808BDF06E
S1132718BDF2FAF251289BEC2A2700F6B800EC2FF8
S11327282700300400B800A800BDF01002D7200428
S113273830FFFFB80230FFFFB800A80ABDF044011B
S11327480061F8EC822700ADF044010061D8EC7414
S11327582700ADF044020061F8EC902700ADF04486
S1132768030061F8EC9E2700ECA92700300904B89F
S113277802300804B800ECA92700300B04B8023072
S11327880A04B800ECA92700300C04B80230FFFF93
S1132798B800ECA92700300D04B802300C04B800C6
S11327A800A802BDF0BDF2FAF28B9DF05CF09DF238
S11327B8A802BDF0BDF4FAF48DF29BA800BDF0BDEB
S11327C8F2FAF28B9DF05CF89DF2A800BDF0BDF41E
S11327D8FAF48DF29BA80A44020061E8EC2E280062
S11327E888084C2E61E8EC102800A802BDF0BDF260
S11327F8FAF28B9DF06C089DF2A802BDF0BDF4FAC4
S1132808F48DF29BECA02800A802BDF0BDF2FAF208
S11328188B9DF05CF79DF2A802BDF0BDF4FAF48D2F
S1132828F29BECA0280088084C2961F8ECA0280049
S1132838A802BDF0BDF4FAF48B9DF288087051002B
S1132848BDF001BDF00490FDBDF0BDF4EAF489319A
S11328584A9DF08DF26BF09DF2A802BDF0BDF4FA2A
S1132868F48DF29BA800BDF0BDF4FAF48B9DF288B8
S113287808705100BDF001BDF00490FDBDF0BDF439
S1132888EAF4895C0F9DF08DF26BF09DF2A800BD0F
S1132898F0BDF4FAF48DF29B1004D7200430FFFF46
S11328A8B80230FFFFB800A80ABDF044030061F87D
S11328B8EC222900ADF044030061F3ECE12800ADFB
S11328C8F044010061F8EC062900ADF0440200610F
S11328D8F8EC142900EC252A00ADF044050061F851
S11328E8EC3E2900ADF044050061D8EC302900AD78
S11328F8F044060061F8EC4C2900EC252A00301A53
S113290804B802301B04B800EC252A00301804B8B7
S113291802301904B800EC252A00301704B8023034
S1132928FFFFB800EC252A00301504B8023016045D
S1132938B800EC252A00301304B802301404B80097
S1132948EC252A0030FFFFB80230FFFFB8008808E2
S11329584C0E61E8EC9E2900C9F01004C9F2100479
S1132968ADF2BDF4FAF48B9DF26AF201ADF0BDF458
S1132978FAF48DF29BC9F00E04C9F20E04ADF2BD4F
S1132988F4FAF48B9DF25AF2FDADF0BDF4FAF48D2D
S1132998F29BEC242A0088084C1D61E8ECE6290027
S11329A8C9F01004C9F21004ADF2BDF4FAF48B9D19
S11329B8F25AF2FEADF0BDF4FAF48DF29BC9F00EB2
S11329C804C9F20E04ADF2BDF4FAF48B9DF26AF276
S11329D802ADF0BDF4FAF48DF29BEC242A00C9F0A0
S11329E81004C9F21004ADF2BDF4FAF48B9DF25A46
S11329F8F2FEADF0BDF4FAF48DF29BC9F00E04C9F1
S1132A08F20E04ADF2BDF4FAF48B9DF25AF2FDAD68
S1132A18F0BDF4FAF48DF29BEC242A0000A802BD60
S1132A28F0BDF2FAF28B9DF05CF09DF2A802BDF0C5
S1132A38BDF4FAF48DF29BA800BDF0BDF2FAF28B56
S1132A489DF05CF19DF2A800BDF0BDF4FAF48DF29E
S1132A589BA80A44030061E8ECD22A0088084C3A8F
S1132A6861E8EC8C2A00A802BDF0BDF2FAF28B9D55
S1132A78F06C029DF2A802BDF0BDF4FAF48DF29B4D
S1132A88EC442B0088084C2E61E8ECB42A00A80218
S1132A98BDF0BDF2FAF28B9DF05CFD9DF2A802BD7B
S1132AA8F0BDF4FAF48DF29BEC442B00A802BDF0BF
S1132AB8BDF2FAF28B9DF05CFC9DF2A802BDF0BD5C
S1132AC8F4FAF48DF29BEC442B0088084C2961F845
S1132AD8EC442B00A802BDF0BDF4FAF48B9DF288F7
S1132AE808705100BDF001BDF00416FDBDF0BDF441
S1132AF8EAF489314A9DF08DF26BF09DF2A802BD8B
S1132B08F0BDF4FAF48DF29BA800BDF0BDF4FAF41C
S1132B188B9DF28808705100BDF001BDF00416FDCC
S1132B28BDF0BDF4EAF4895C0F9DF08DF26BF09D65
S1132B38F2A800BDF0BDF4FAF48DF29B1004D7207E
S1132B480830FFFFB80630FFFFB80430FFFFB802B3
S1132B5830FFFFB800A80EBDF044030061F8ECB6DE
S1132B682B00ADF044030061F3EC842B00ADF0447A
S1132B78020061F8EC9E2B00ECFB2B00ADF0440442
S1132B880061F8ECCE2B00ADF044050061F8ECE6EA
S1132B982B00ECFB2B00300004B806300104B80409
S1132BA8302504B802302604B800ECFB2B003002B0
S1132BB804B806300304B804302304B802302404EB
S1132BC8B800ECFB2B00300404B806300504B80444
S1132BD8302104B802302204B800ECFB2B00300684
S1132BE804B806300704B804301F04B802302004BF
S1132BF8B80000A806BDF0BDF2FAF28B9DF05CF0B7
S1132C089DF2A806BDF0BDF4FAF48DF29BA804BDAC
S1132C18F0BDF2FAF28B9DF05CF09DF2A804BDF0D1
S1132C28BDF4FAF48DF29BA802BDF0BDF2FAF28B62
S1132C389DF05CF19DF2A802BDF0BDF4FAF48DF2AA
S1132C489BA800BDF0BDF2FAF28B9DF05CF09DF2FA
S1132C58A800BDF0BDF4FAF48DF29B880C4C2961F0
S1132C68F8EC3B2D00A800BDF0BDF4FAF48B9DF2FE
S1132C78880C705100BDF001BDF0043EFDBDF0BDEF
S1132C88F4EAF4895C0F9DF08DF26BF09DF2A800D4
S1132C98BDF0BDF4FAF48DF29BA802BDF0BDF4FAC0
S1132CA8F48B9DF2880C705100BDF001BDF0043E18
S1132CB8FDBDF0BDF4EAF489314A9DF08DF26BF064
S1132CC89DF2A802BDF0BDF4FAF48DF29BA804BDF0
S1132CD8F0BDF4FAF48B9DF2880C705100BDF0013C
S1132CE8BDF0043EFDBDF0EAF08A015C0F9DF08D55
S1132CF8F26BF09DF2A804BDF0BDF4FAF48DF29BDA
S1132D08A806BDF0BDF4FAF48B9DF2880C7051004E
S1132D18BDF001BDF0043EFDBDF0EAF08A01314A80
S1132D289DF08DF26BF09DF2A806BDF0BDF4FAF4A7
S1132D388DF29B1008D7C9F00F04C9F20F04ADF245
S1132D48BDF4FAF48B9DF25AF2F0ADF0BDF4FAF446
S1132D588DF29B8804705100BDF044020061F8ECC8
S1132D68EB2D00ADF044020071FF61F3EC922D00ED
S1132D78ADF044000061F8ECAC2D00ADF044010066
S1132D8861F8ECCA2D00EC4B2E00ADF04403006151
S1132D98F8EC0C2E00ADF044040061F8EC2D2E0084
S1132DA8EC4B2E00C9F00F04C9F20F04ADF2BDF4C8
S1132DB8FAF48B9DF2ADF0BDF4FAF48DF29BEC4B72
S1132DC82E00C9F00F04C9F20F04ADF2BDF4FAF4F1
S1132DD88B9DF26AF208ADF0BDF4FAF48DF29BEC27
S1132DE84B2E00C9F00F04C9F20F04ADF2BDF4FA7A
S1132DF8F48B9DF26AF20CADF0BDF4FAF48DF29BFB
S1132E08EC4B2E00C9F00F04C9F20F04ADF2BDF467
S1132E18FAF48B9DF26AF20EADF0BDF4FAF48DF279
S1132E289BEC4B2E00C9F00F04C9F20F04ADF2BDA0
S1132E38F4FAF48B9DF26AF20FADF0BDF4FAF48D56
S1132E48F29B008806D161E8EC752E00C9F00E04E7
S1132E58C9F20E04ADF2BDF4FAF48B9DF25AF2FEF7
S1132E68ADF0BDF4FAF48DF29BEC922E00C9F00E8D
S1132E7804C9F20E04ADF2BDF4FAF48B9DF26AF2C1
S1132E8801ADF0BDF4FAF48DF29BD78804705100BB
S1132E98BDF044030061F8EC023100ADF0440300D6
S1132EA871FF61F3ECD72E00ADF044010061F8EC3A
S1132EB89E2F00ADF044010071FF61F3EC50300027
S1132EC8ADF044000061F8EC903300EC223400AD1E
S1132ED8F044050061F8EC2C3200ADF044050071B3
S1132EE8FF61D8EC973100ADF044060061F8ECDEE0
S1132EF83200ADF044070061F8EC092F00EC2234ED
S1132F0800C9F01904C9F21904ADF2BDF4FAF48B3E
S1132F189DF25AF20EADF0BDF4FAF48DF29BC9F0AD
S1132F281704C9F21704ADF2BDF4FAF48B9DF25AF2
S1132F38F203ADF0BDF4FAF48DF29BC9F01604C99E
S1132F48F21604ADF2BDF4FAF48B9DF25AF20EAD0A
S1132F58F0BDF4FAF48DF29BC9F01404C9F2140418
S1132F68ADF2BDF4FAF48B9DF25AF20EADF0BDF455
S1132F78FAF48DF29BC9F01004C9F21004ADF2BD45
S1132F88F4FAF48B9DF25AF203ADF0BDF4FAF48D21
S1132F98F29BEC223400C9F01904C9F21904ADF209
S1132FA8BDF4FAF48B9DF25AF20EADF0BDF4FAF4C6
S1132FB88DF29BC9F01704C9F21704ADF2BDF4FAF7
S1132FC8F48B9DF25AF203ADF0BDF4FAF48DF29B42
S1132FD8C9F01704C9F21704ADF2BDF4FAF48B9DD5
S1132FE8F26AF208ADF0BDF4FAF48DF29BC9F0165A
S1132FF804C9F21604ADF2BDF4FAF48B9DF25AF248
S11330080EADF0BDF4FAF48DF29BC9F01404C9F2C4
S11330181404ADF2BDF4FAF48B9DF25AF20EADF03D
S1133028BDF4FAF48DF29BC9F01004C9F21004AD92
S1133038F2BDF4FAF48B9DF25AF203ADF0BDF4FA42
S1133048F48DF29BEC223400C9F01904C9F2190476
S1133058ADF2BDF4FAF48B9DF25AF20EADF0BDF464
S1133068FAF48DF29BC9F01904C9F21904ADF2BD42
S1133078F4FAF48B9DF25AF203ADF0BDF4FAF48D30
S1133088F29BC9F01904C9F21904ADF2BDF4FAF4BB
S11330988B9DF26AF204ADF0BDF4FAF48DF29BC98B
S11330A8F01604C9F21604ADF2BDF4FAF48B9DF2DD
S11330B85AF20EADF0BDF4FAF48DF29BC9F0140483
S11330C8C9F21404ADF2BDF4FAF48B9DF25AF20E6F
S11330D8ADF0BDF4FAF48DF29BC9F01004C9F210F6
S11330E804ADF2BDF4FAF48B9DF25AF203ADF0BDCF
S11330F8F4FAF48DF29BEC223400C9F01904C9F2F5
S11331081904ADF2BDF4FAF48B9DF25AF20EADF047
S1133118BDF4FAF48DF29BC9F02004C9F22004AD81
S1133128F2BDF4FAF48B9DF25AF203ADF0BDF4FA51
S1133138F48DF29BC9F01604C9F21604ADF2BDF47D
S1133148FAF48B9DF26AF201ADF0BDF4FAF48DF253
S11331589BC9F01404C9F21404ADF2BDF4FAF48B5B
S11331689DF25AF20EADF0BDF4FAF48DF29BC9F05B
S11331781004C9F21004ADF2BDF4FAF48B9DF25AAE
S1133188F203ADF0BDF4FAF48DF29BEC223400C9DD
S1133198F01904C9F21904ADF2BDF4FAF48B9DF2E6
S11331A85AF20EADF0BDF4FAF48DF29BC9F017048F
S11331B8C9F21704ADF2BDF4FAF48B9DF25AF20386
S11331C8ADF0BDF4FAF48DF29BC9F01604C9F216F9
S11331D804ADF2BDF4FAF48B9DF25AF20EADF0BDD3
S11331E8F4FAF48DF29BC9F01404C9F21404ADF294
S11331F8BDF4FAF48B9DF26AF201ADF0BDF4FAF471
S11332088DF29BC9F01004C9F21004ADF2BDF4FAB2
S1133218F48B9DF25AF203ADF0BDF4FAF48DF29BEF
S1133228EC223400C9F01904C9F21904ADF2BDF452
S1133238FAF48B9DF25AF20EADF0BDF4FAF48DF265
S11332489BC9F01704C9F21704ADF2BDF4FAF48B64
S11332589DF25AF203ADF0BDF4FAF48DF29BC9F075
S11332681604C9F21604ADF2BDF4FAF48B9DF25AB1
S1133278F20EADF0BDF4FAF48DF29BC9F01404C952
S1133288F21404ADF2BDF4FAF48B9DF25AF20EADC9
S1133298F0BDF4FAF48DF29BC9F01004C9F21004DD
S11332A8ADF2BDF4FAF48B9DF25AF203ADF0BDF41D
S11332B8FAF48DF29BC9F01004C9F21004ADF2BD02
S11332C8F4FAF48B9DF26AF208ADF0BDF4FAF48DC9
S11332D8F29BEC223400C9F01904C9F21904ADF2C6
S11332E8BDF4FAF48B9DF25AF20EADF0BDF4FAF483
S11332F88DF29BC9F01704C9F21704ADF2BDF4FAB4
S1133308F48B9DF25AF203ADF0BDF4FAF48DF29BFE
S1133318C9F01604C9F21604ADF2BDF4FAF48B9D93
S1133328F25AF20EADF0BDF4FAF48DF29BC9F01422
S113333804C9F21404ADF2BDF4FAF48B9DF25AF206
S11333480EADF0BDF4FAF48DF29BC9F01004C9F285
S11333581004ADF2BDF4FAF48B9DF25AF203ADF009
S1133368BDF4FAF48DF29BC9F01004C9F21004AD4F
S1133378F2BDF4FAF48B9DF26AF204ADF0BDF4FAEE
S1133388F48DF29BEC223400C9F01904C9F2190433
S1133398ADF2BDF4FAF48B9DF26AF201ADF0BDF41E
S11333A8FAF48DF29BC9F01704C9F21704ADF2BD03
S11333B8F4FAF48B9DF25AF203ADF0BDF4FAF48DED
S11333C8F29BC9F01604C9F21604ADF2BDF4FAF47E
S11333D88B9DF25AF20EADF0BDF4FAF48DF29BC94E
S11333E8F01404C9F21404ADF2BDF4FAF48B9DF29E
S11333F85AF20EADF0BDF4FAF48DF29BC9F0100444
S1133408C9F21004ADF2BDF4FAF48B9DF25AF2033A
S1133418ADF0BDF4FAF48DF29B00D72002C8010088
S1133428A806BDF044313961F8EC573700ADF044D3
S1133438313961F3EC003500ADF044303661F8EC15
S1133448B23600ADF044303661F3ECAB3400ADF085
S113345844303261F8EC2E3600ADF044303261F37A
S1133468EC863400ADF044303161F8ECEC3500AD55
S1133478F044313161F8ECCB3500EC673900ADF03C
S113348844303361F8EC703600ADF044313361F800
S1133498EC4F3600ADF044313261F8EC0D3600ECF7
S11334A8673900ADF044313761F8ECD33600ADF03C
S11334B844313761F3ECDB3400ADF044313661F864
S11334C8EC913600ADF044303761F8ECF43600EC9A
S11334D8673900ADF044313861F8EC153700ADF0C8
S11334E844303961F8EC783700ADF044303861F88D
S11334F8EC363700EC673900ADF044306161F8EC24
S1133508FC3700ADF044306161F3EC6B3500ADF08D
S113351844304261F8EC3E3800ADF044304261F387
S1133528EC463500ADF044304161F8ECBA3700ADF3
S1133538F044314161F8EC993700EC673900ADF09B
S113354844304361F8ECC23800ADF044314361F8CB
S1133558ECA13800ADF044314261F8EC1D3800ECC0
S1133568673900ADF044306361F8EC043900ADF01C
S113357844306361F3ECA63500ADF044306261F881
S1133588EC803800ADF044316261F8EC5F3800AD8E
S1133598F044316161F8ECDB3700EC673900ADF0D9
S11335A844316561F8EC253900ADF044306661F8C2
S11335B8EC463900ADF044316361F8ECE33800ECD3
S11335C8673900C9F01B04C9F21B04ADF2BDF4FA53
S11335D8F48B9DF26AF201ADF0BDF4FAF48DF29B1E
S11335E8EC6B3900C9F01B04C9F21B04ADF2BDF43D
S11335F8FAF48B9DF25AF2FEADF0BDF4FAF48DF2B2
S11336089BEC6B3900C9F02204C9F22204ADF2BD67
S1133618F4FAF48B9DF26AF201ADF0BDF4FAF48D7C
S1133628F29BEC6B3900C9F02204C9F22204ADF212
S1133638BDF4FAF48B9DF25AF2FEADF0BDF4FAF43F
S11336488DF29BEC6B3900C9F02104C9F22104AD59
S1133658F2BDF4FAF48B9DF26AF201ADF0BDF4FA0E
S1133668F48DF29BEC6B3900C9F02104C9F22104F2
S1133678ADF2BDF4FAF48B9DF25AF2FEADF0BDF44E
S1133688FAF48DF29BEC6B3900C9F02004C9F220DE
S113369804ADF2BDF4FAF48B9DF26AF201ADF0BD0B
S11336A8F4FAF48DF29BEC6B3900C9F02004C9F2EA
S11336B82004ADF2BDF4FAF48B9DF25AF2FEADF09B
S11336C8BDF4FAF48DF29BEC6B3900C9F01F04C900
S11336D8F21F04ADF2BDF4FAF48B9DF26AF201AD67
S11336E8F0BDF4FAF48DF29BEC6B3900C9F01F04B9
S11336F8C9F21F04ADF2BDF4FAF48B9DF25AF2FE3E
S1133708ADF0BDF4FAF48DF29BEC6B3900C9F00E00
S113371804C9F20E04ADF2BDF4FAF48B9DF26AF218
S113372804ADF0BDF4FAF48DF29BEC6B3900C9F0EA
S11337380E04C9F20E04ADF2BDF4FAF48B9DF25AEC
S1133748F2FBADF0BDF4FAF48DF29BEC6B3900C9D1
S1133758F00E04C9F20E04ADF2BDF4FAF48B9DF236
S11337686AF208ADF0BDF4FAF48DF29BEC6B390003
S1133778C9F00E04C9F20E04ADF2BDF4FAF48B9D3F
S1133788F25AF2F7ADF0BDF4FAF48DF29BEC6B3912
S113379800C9F01004C9F21004ADF2BDF4FAF48BB8
S11337A89DF26AF202ADF0BDF4FAF48DF29BEC6B73
S11337B83900C9F01004C9F21004ADF2BDF4FAF4EA
S11337C88B9DF25AF2FDADF0BDF4FAF48DF29BEC48
S11337D86B3900C9F01004C9F21004ADF2BDF4FA53
S11337E8F48B9DF26AF202ADF0BDF4FAF48DF29B0B
S11337F8EC6B3900C9F01004C9F21004ADF2BDF441
S1133808FAF48B9DF25AF2FDADF0BDF4FAF48DF2A0
S11338189BEC6B3900C9F01004C9F21004ADF2BD79
S1133828F4FAF48B9DF26AF201ADF0BDF4FAF48D6A
S1133838F29BEC6B3900C9F01004C9F21004ADF224
S1133848BDF4FAF48B9DF25AF2FEADF0BDF4FAF42D
S11338588DF29BEC6B3900C9F01004C9F21004AD69
S1133868F2BDF4FAF48B9DF26AF201ADF0BDF4FAFC
S1133878F48DF29BEC6B3900C9F01B04C9F21B04EC
S1133888ADF2BDF4FAF48B9DF25AF2FEADF0BDF43C
S1133898FAF48DF29BEC6B3900C9F00E04C9F20EF0
S11338A804ADF2BDF4FAF48B9DF26AF202ADF0BDF8
S11338B8F4FAF48DF29BEC6B3900C9F00E04C9F2EA
S11338C80E04ADF2BDF4FAF48B9DF25AF2FDADF09C
S11338D8BDF4FAF48DF29BEC6B3900C9F00E04C9FF
S11338E8F20E04ADF2BDF4FAF48B9DF26AF202AD65
S11338F8F0BDF4FAF48DF29BEC6B3900C9F00E04B8
S1133908C9F20E04ADF2BDF4FAF48B9DF25AF2FD3D
S1133918ADF0BDF4FAF48DF29BEC6B3900C9F01CE0
S113392804C9F21C04ADF2BDF4FAF48B9DF26AF2F8
S113393801ADF0BDF4FAF48DF29BEC6B3900C9F0DB
S11339481C04C9F21C04ADF2BDF4FAF48B9DF25ABE
S1133958F2F0ADF0BDF4FAF48DF29BEC6B3900C8CB
S113396801010088019DF01002D7FCB43900FC83E2
S11339783900FCDB4C00FC074D00D7200430000460
S1133988B800C80300ECA73900A800BDF0BDF2FADE
S1133998F2F19BA800A1B80088039DF081980388E0
S11339A8034C2761E3EC9139001004D7FCC13900BA
S11339B8FC223A00FC933A00D730F500BF90FD3062
S11339C86000BF92FD30B600BF94FD30F200BF9690
S11339D8FD306300BF98FD30D300BF9AFD30D70097
S11339E8BF9CFD307000BF9EFD30F700BFA0FD30C6
S11339F8F300BFA2FD307700BFACFD30C700BFAEF7
S1133A08FD309500BFB0FD30E600BFB2FD30970031
S1133A18BFB4FD301700BFB6FDD730FA00BF16FD9E
S1133A28306000BF18FD30D600BF1AFD30F400BF67
S1133A381CFD306C00BF1EFD30BC00BF20FD30BE35
S1133A4800BF22FD30E000BF24FD30FE00BF26FD8C
S1133A5830FC00BF28FDF6BF2AFDF6BF2CFDF6BFDB
S1133A682EFDF6BF30FD30EE00BF32FD303E00BF04
S1133A7834FD309A00BF36FD307600BF38FD309EE5
S1133A8800BF3AFD308E00BF3CFDD730AAC3BF3E0D
S1133A98FD30A000BF40FD306C81BF42FD30E481A1
S1133AA8BF44FD30E600BF46FD30C681BF48FD3047
S1133AB8CE81BF4AFD30A001BF4CFD30EE81BF4E20
S1133AC8FD30E681BF50FD304424BF52FD30440030
S1133AD8BF54FD300042BF56FD300018BF58FD30BA
S1133AE8447EBF8EFDFCF23A00D730EE01BF5AFD8A
S1133AF830E0A5BF5CFD300A81BF5EFD30A0A5BFE4
S1133B0860FD304E81BF62FD304E01BF64FD30CA96
S1133B1881BF66FD30EE00BF68FD3000A5BF6AFDB9
S1133B2830A080BF6CFD300E0ABF6EFD300A80BF26
S1133B3870FD30AA12BF72FD30AA18BF74FD30AAF6
S1133B4881BF76FD306E01BF78FD30AA89BF7AFD4A
S1133B58306E09BF7CFD30C681BF7EFD300025BFB5
S1133B6880FD30AA80BF82FD300A42BF84FD30AA9E
S1133B7848BF86FD30005ABF88FD300016BF8AFD55
S1133B883000C3BF8CFDD7200CC80500F6B808F672
S1133B98B80AF6B8068810705100BDF044320061C6
S1133BA8F8ECC73C00ADF044320071FF61F3ECC996
S1133BB83B00ADF044310061F8ECE33B00EC8C3E93
S1133BC800ADF044330061F8EC5F3C00ADF04434E0
S1133BD80061F8EC793D00EC8C3E00F6B80AEC5034
S1133BE83C00A80A16A81207BDF0BDF2FAF28B9D94
S1133BF8F09800C9F40C00AEF8BDF4040C00BDF450
S1133C0804F9FFB802FC472500ADF0B808440100E8
S1133C1861F8EC343C00A80844020061F8EC343C38
S1133C2800A80844040061E8EC493C0088059DF2BA
S1133C38A80AA1BDF08DF29800ADF0B802FCA32843
S1133C4800A80ABDF0A1B80AA80A44060061E3EC7A
S1133C58EA3B00EC8C3E00F6B80AECB83C00A80A33
S1133C6816A81207BDF0BDF2FAF28B9DF09800C9B0
S1133C78F40C00AEF8BDF4040C00BDF404F9FFB86C
S1133C8802FC472500ADF0B80844000061F8ECB127
S1133C983C0088059DF2A80A040200BDF08DF29844
S1133CA800ADF0B802FC472B00A80ABDF0A1B80A81
S1133CB8A80A44040061E3EC663C00EC8C3E00F680
S1133CC8B80AEC6A3D00A80A16A81207BDF0BDF2AE
S1133CD8FAF28B9DF09800C9F40C00AEF8BDF40418
S1133CE80C00BDF404F9FFB802FC472500ADF0B898
S1133CF80844010061F8EC183D00A808440200617A
S1133D08F8EC183D00A80844040061E8EC633D00A1
S1133D18A80A44010061E3EC533D00A81204020020
S1133D28BDF0BDF2FAF28B9DF04AF02E61F8EC5327
S1133D383D0088059DF2A80AA1BDF08DF29800AD5A
S1133D48F0B802FC362700EC633D0088059DF09826
S1133D5800A80ABDF0B802FC362700A80ABDF0A1E5
S1133D68B80AA80A44040061E3ECCE3C00EC8C3E9B
S1133D7800A812BDF0BDF4FAF48B9DF04AF0466138
S1133D88F8ECA13D00A812BDF0BDF2FAF28B9DF04B
S1133D984AF06661E8ECE43D00A812A1BDF0BDF468
S1133DA8FAF48B9DF09800C9F00C00AEF8BDF0044D
S1133DB80C00BDF004F9FFB802FC472500ADF0B8CB
S1133DC80844010061E8ECE03D0088059DF0980096
S1133DD8FC932E00EC8B3E00EC8B3E00A812BDF049
S1133DE8BDF2FAF28B9DF04AF02D61E8EC4E3E00EC
S1133DF8A812A1BDF0BDF4FAF48B9DF0D4F061F8DB
S1133E08EC2D3E00C9F00804C9F20804ADF2BDF473
S1133E18FAF48B9DF26AF208ADF0BDF4FAF48DF26F
S1133E289BEC8B3E00C9F00804C9F20804ADF2BD4E
S1133E38F4FAF48B9DF25AF2F7ADF0BDF4FAF48D6E
S1133E48F29BEC8B3E00A812BDF0BDF2FAF28B9DFA
S1133E58F0705100B806318DB806A812A1BDF0BDA6
S1133E68F4FAF48B9DF0CDF10088066BF09806887F
S1133E78076BF19807A806BDF0B800FC233400ECE2
S1133E888B3E0000100CD7200CA810BDF4B804A871
S1133E9812BDF4B806A804BDF4B800A806BDF4B869
S1133EA802A802312D98038801708802312D9802E6
S1133EB8A800312DB800FBF8FFA800610904B80870
S1133EC8A80261D8A1610906B80A00A808BDF0A82B
S1133ED80ABDF2ADF004FFFFB808ADF261D8A10441
S1133EE8FFFFB80AADF2440000ADF061F8440000E9
S1133EF861E8ECD33E00100CD7C9F00004ADF0BD66
S1133F08F2FAF2F19BC9F00104ADF0BDF2FAF2F154
S1133F189BC9F00204ADF0BDF2FAF2F19BC9F003BB
S1133F2804ADF0BDF2FAF2F19BC9F00404ADF0BDA2
S1133F38F2FAF2F19BC9F00504ADF0BDF2FAF2F120
S1133F489BC9F00604ADF0BDF2FAF2F19BC9F00783
S1133F5804ADF0BDF2FAF2F19BC9F00804ADF0BD6E
S1133F68F2FAF2F19BC9F00904ADF0BDF2FAF2F1EC
S1133F789BC9F00A04ADF0BDF2FAF2F19BC9F00B4B
S1133F8804ADF0BDF2FAF2F19BC9F00C04ADF0BD3A
S1133F98F2FAF2F19BC9F00D04ADF0BDF2FAF2F1B8
S1133FA89BC9F00E04ADF0BDF2FAF2F19BC9F00F13
S1133FB804ADF0BDF2FAF2F19BC9F01004ADF0BD06
S1133FC8F2FAF2F19BC9F01304ADF0BDF2FAF2F182
S1133FD89BC9F01404ADF0BDF2FAF2F19BC9F015D7
S1133FE804ADF0BDF2FAF2F19BC9F01604ADF0BDD0
S1133FF8F2FAF2F19BC9F01704ADF0BDF2FAF2F14E
S11340089BC9F01804ADF0BDF2FAF2F19BC9F0199E
S113401804ADF0BDF2FAF2F19BC9F01A04ADF0BD9B
S1134028F2FAF2F19BC9F01B04ADF0BDF2FAF2F119
S11340389BC9F01C04ADF0BDF2FAF2F19BC9F01F64
S113404804ADF0BDF2FAF2F19BC9F02004ADF0BD65
S1134058F2FAF2F19BC9F02104ADF0BDF2FAF2F1E3
S11340689BC9F02204ADF0BDF2FAF2F19BC9F0232A
S113407804ADF0BDF2FAF2F19BC9F02404ADF0BD31
S1134088F2FAF2F19BC9F02504ADF0BDF2FAF2F1AF
S11340989BC9F02604ADF0BDF2FAF2F19BD7C9F042
S11340A80004ADF0BDF2FAF2510F9BC9F00104AD62
S11340B8F0BDF2FAF2510F9BC9F00204ADF0BDF263
S11340C8FAF2510F9BC9F00304ADF0BDF2FAF251B4
S11340D80F9BC9F00404ADF0BDF2FAF2510F9BC96D
S11340E8F00504ADF0BDF2FAF2510F9BC9F00604D5
S11340F8ADF0BDF2FAF2510F9BC9F00704ADF0BD63
S1134108F2FAF2510F9BC9F00804ADF0BDF2FAF2CD
S1134118510F9BC9F00904ADF0BDF2FAF2510F9B9F
S1134128C9F00A04ADF0BDF2FAF251079BC9F00BCD
S113413804ADF0BDF2FAF2510F9BC9F00C04ADF0D6
S1134148BDF2FAF2510F9BC9F00D04ADF0BDF2FABD
S1134158F2510F9BC9F00E04ADF0BDF2FAF2510F03
S11341689BC9F00F04ADF0BDF2FAF2510F9BC9F0F0
S11341781004ADF0BDF2FAF2510F9BC9F01304AD6F
S1134188F0BDF2FAF2510F9BC9F01404ADF0BDF280
S1134198FAF2510F9BC9F01504ADF0BDF2FAF251D1
S11341A80F9BC9F01604ADF0BDF2FAF2510F9BC98A
S11341B8F01704ADF0BDF2FAF2510F9BC9F01804E0
S11341C8ADF0BDF2FAF2510F9BC9F01904ADF0BD80
S11341D8F2FAF2510F9BC9F01A04ADF0BDF2FAF2EB
S11341E8510F9BC9F01B04ADF0BDF2FAF2510F9BBD
S11341F8C9F01C04ADF0BDF2FAF2E19BC9F01F044A
S1134208ADF0BDF2FAF2510F9BC9F02004ADF0BD38
S1134218F2FAF2510F9BC9F02104ADF0BDF2FAF2A3
S1134228510F9BC9F02204ADF0BDF2FAF2510F9B75
S1134238C9F02304ADF0BDF2FAF2510F9BC9F02482
S113424804ADF0BDF2FAF2510F9BC9F02504ADF0AC
S1134258BDF2FAF2510E9BC9F02604ADF0BDF2FA94
S1134268F2510E9BD7C9F0F000ADF0BDF4FAF48B0F
S11342789DF26AF220ADF08DF29BC9F030FFADF0EB
S1134288BDF2FAF2F19BC9F0E6FFADF0BDF4FAF421
S11342988B9DF26AF220ADF08DF29BC9F0E2FFAD7E
S11342A8F0BDF4FAF48B9DF25AF2DFADF08DF29B77
S11342B8C9F0EEFFADF0BDF4FAF48B9DF26AF2207A
S11342C8ADF08DF29BC9F0EAFFADF0BDF4FAF48BC2
S11342D89DF26AF220ADF08DF29BC9F022FFC9F27B
S11342E822FFADF2BDF4FAF48B9DF26AF201ADF04F
S11342F8BDF4FAF48DF29BC9F030FFADF0BDF2FACB
S1134308F251089BC9F032FFADF0BDF4FAF4512024
S11343189BC9F01000ADF0BDF2FAF2F19BC9F0119F
S113432800ADF0BDF4FAF451FF9BC9F01200ADF0F2
S1134338BDF2FAF2F19BC9F031FFADF0BDF4FAF425
S1134348F19BD7C9F0E6FFADF0BDF4FAF48B9DF20A
S11343586AF220ADF08DF29BC9F030FFADF0BDF4E8
S1134368FAF48B9DF26AF280ADF08DF29BD7C9F016
S113437830FFADF0BDF4FAF48B9DF25AF27FADF044
S11343888DF29BC9F0E6FFADF0BDF4FAF48B9DF213
S11343986AF220ADF08DF29BC9F0E2FFADF0BDF4F6
S11343A8FAF48B9DF25AF2DFADF08DF29BD7C9F087
S11343B830FFADF0BDF4FAF48B9DF26AF201ADF072
S11343C88DF29BD7C9F030FFADF0BDF4FAF48B9DA4
S11343D8F25AF2FEADF08DF29BD700C9F030FFAD72
S11343E8F0BDF2FAF28B9DF05AF080D4F061E8EC5B
S11343F8E34300C9F01EFFADF0BDF4FAF4ABBDF021
S1134408316EBDF2A804BDF0BDF4FAF4ADF2BBD729
S113441861CFC1C3C5C761DFC1C3C5C761EFC76188
S1134428CF2002305CF9B800FCE24300C9F0E2FF97
S1134438ADF0BDF4FAF48B9DF25AF2DFADF08DF2D3
S11344489B100261EFC661DFC6C4C2C061CFC6C497
S1134458C2C061FC2006C9F0A0FFADF0BDF2FAF2BB
S113446851149BC9F0A1FFADF0BDF4FAF48B9DF291
S11344786AF280ADF08DF29BC9F0A4FFADF0BDF4F3
S1134488FAF48B9DF25AF2EFADF08DF29BC9F0A1CC
S1134498FFADF0BDF4FAF48B9DF25AF2BFADF08D86
S11344A8F29BF6B804ECC1440000A804BDF0B802BD
S11344B8BDF2B800A1BDF0B804A804BDF044A00042
S11344C861E3ECB14400C9F0F300ADF0BDF4FAF4D3
S11344D8F19BC9F0A4FFADF0BDF4FAF48B9DF25A38
S11344E8F2BFADF08DF29BC9F0A1FFADF0BDF4FAB7
S11344F8F48B9DF25AF2FEADF08DF29B1006D7C9EB
S1134508F0ECFFADF0BDF4FAF48B9DF25AF2FBAD7A
S1134518F08DF29BC9F0E8FFADF0BDF4FAF48B9D81
S1134528F26AF204ADF08DF29BC9F0ECFFADF0BD78
S1134538F4FAF48B9DF25AF2DFADF08DF29BC9F0D8
S1134548E8FFADF0BDF4FAF48B9DF26AF220ADF009
S11345588DF29BC9F0ECFFADF0BDF4FAF48B9DF23B
S11345685AF2BFADF08DF29BC9F0E8FFADF0BDF48F
S1134578FAF48B9DF26AF240ADF08DF29BC9F039E2
S1134588FFADF0BDF2FAF251199BC9F00203C9F26A
S11345980203ADF2BDF4FAF48B9DF25AF2FBADF0CE
S11345A8BDF4FAF48DF29BC9F023FFC9F223FFADE1
S11345B8F2BDF4FAF48B9DF26AF202ADF0BDF4FA9E
S11345C8F48DF29BC9F00203C9F20203ADF2BDF403
S11345D8FAF48B9DF25AF2FDADF0BDF4FAF48DF2C3
S11345E89BC9F023FFC9F223FFADF2BDF4FAF48BA3
S11345F89DF26AF204ADF0BDF4FAF48DF29BD7C9CA
S1134608F0E0FFADF0BDF4FAF48B9DF25AF2FBAD85
S1134618F08DF29BC9F0E4FFADF0BDF4FAF48B9D84
S1134628F25AF2FBADF08DF29BD7C9F0E4FFADF07E
S1134638BDF4FAF48B9DF26AF204ADF08DF29BC9D5
S1134648F0E0FFADF0BDF4FAF48B9DF25AF2FBAD45
S1134658F08DF29BD7C9F0E0FFADF0BDF4FAF48B0E
S11346689DF25AF2DFADF08DF29BC9F0E4FFADF094
S1134678BDF4FAF48B9DF25AF2DFADF08DF29BD7BC
S1134688C9F0E4FFADF0BDF4FAF48B9DF26AF220B0
S1134698ADF08DF29BC9F0E0FFADF0BDF4FAF48BF8
S11346A89DF25AF2DFADF08DF29BD7C9F0E0FFAD71
S11346B8F0BDF4FAF48B9DF25AF2BFADF08DF29B83
S11346C8C9F0E4FFADF0BDF4FAF48B9DF25AF2BFE1
S11346D8ADF08DF29BD7C9F0E4FFADF0BDF4FAF468
S11346E88B9DF26AF240ADF08DF29BC9F0E0FFAD0C
S11346F8F0BDF4FAF48B9DF25AF2BFADF08DF29B43
S1134708D761CFC1C3C5C761DFC1C3C561CF8F5EE0
S1134718F99DF06AF0018DF09F5EF9C9F0E0FFADF4
S1134728F0BDF4FAF48B9DF25AF2FBADF08DF29BD6
S113473861DFC4C2C061CFC6C4C2C061FC61CFC15D
S1134748C3C5C761DFC1C3C561CF8F5EF99DF06A78
S1134758F0028DF09F5EF9C9F0E0FFADF0BDF4FA08
S1134768F48B9DF25AF2DFADF08DF29B61DFC4C287
S1134778C061CFC6C4C2C061FC61CFC1C3C5C76133
S1134788DFC1C3C561CF8F5EF99DF06AF0048DF077
S11347989F5EF9C9F0E0FFADF0BDF4FAF48B9DF229
S11347A85AF2BFADF08DF29B61DFC4C2C061CFC6BF
S11347B8C4C2C061FCFC294900D7C9F2F300C9F49A
S11347C8F300ADF4BDF0FAF08B9DF45AF4EFADF2BA
S11347D8BDF0FAF08DF49BC9F290FFADF2BDF4FA86
S11347E8F4304701BBC9F490FFC9F290FFADF2BDA4
S11347F8F0FAF0ABBDF28DF26C009DF08DF36C8095
S11348089DF1ADF4BDF2FAF2ADF0BBC9F0E2FFAD33
S1134818F0BDF4FAF48B9DF25AF27FADF08DF29B61
S1134828C9F0E6FFADF0BDF4FAF48B9DF25AF27FBD
S1134838ADF08DF29BD7C9F0E2FFADF0BDF4FAF408
S11348488B9DF25AF27FADF08DF29BC9F0E6FFAD75
S1134858F0BDF4FAF48B9DF25AF27FADF08DF29B21
S1134868D7C9F2E6FFADF2BDF0FAF08B9DF46AF415
S113487880ADF28DF49BC9F2E2FFADF2BDF0FAF01F
S11348888B9DF45AF47FADF28DF49BC9F490FFC963
S1134898F290FFADF2BDF0FAF0ABBDF28DF25CFF21
S11348A89DF08DF35C7F9DF1ADF4BDF2FAF2ADF0AD
S11348B8BBD7C9F0F000ADF0BDF4FAF48B9DF25A01
S11348C8F27FADF08DF29BD788045CFF98048805CD
S11348D85C0F9805C9F690FFC9F490FFADF4BDF0DC
S11348E8FAF0ABBDF48DF45C009DF28DF55C809D0F
S11348F8F3ADF6BDF0FAF0ADF2BBC9F490FFC9F21E
S113490890FFADF2BDF0FAF0ABBDF288046BF29DF6
S1134918F088056BF39DF1ADF4BDF2FAF2ADF0BB8E
S1134928D7C9F0F000ADF0BDF4FAF48B9DF26AF249
S113493880ADF08DF29BC9F090FFADF0BDF2FAF2B4
S1134948F6BBC9F0E6FFADF0BDF4FAF48B9DF26A4C
S1134958F280ADF08DF29BC9F0E2FFADF0BDF4FA40
S1134968F48B9DF25AF27FADF08DF29BC9F0EEFF05
S1134978ADF0BDF4FAF48B9DF26AF280ADF08DF2DD
S11349889BC9F0EAFFADF0BDF4FAF48B9DF26AF22C
S113499880ADF08DF29BC9F090FFADF0BDF2FAF254
S11349A830FF0FBBD761CFC1C3C5C761DFC1C3C562
S11349B8C761EFC761CFFC9A2400C9F0E2FFADF0EC
S11349C8BDF4FAF48B9DF25AF27FADF08DF29B613F
S11349D8EFC661DFC6C4C2C061CFC6C4C2C061FC31
S11349E82002F6B800C9F0F000ADF0BDF4FAF48B7B
S11349F89DF26AF280ADF08DF29BC9F041FFADF0F3
S1134A08BDF4FAF48B9DF25AF27FADF08DF29BC996
S1134A18F0D4FFADF0BDF4FAF48B9DF26AF201AD67
S1134A28F08DF29BC9F0D0FFADF0BDF4FAF48B9D84
S1134A38F25AF2FEADF08DF29BC9F040FFADF0BD25
S1134A48F2FAF2514D9BC9F00003ADF0BDF4FAF44B
S1134A5851F09BC9F00103ADF0BDF2FAF251FF9B8E
S1134A68C9F00203ADF0BDF4FAF451F99BC9F0039F
S1134A7803ADF0BDF2FAF2519F9BC9F00403ADF007
S1134A88BDF4FAF4517F9BC9F06100C9F26100AD2D
S1134A98F2BDF4FAF48B9DF25AF2E7ADF0BDF4FAE4
S1134AA8F48DF29BC9F06400C9F26400ADF2BDF460
S1134AB8FAF48B9DF25AF2FDADF0BDF4FAF48DF2DE
S1134AC89BC9F06C00C9F26C00ADF2BDF4FAF48B2A
S1134AD89DF25AF2FEADF0BDF4FAF48DF29BC9F0E2
S1134AE86E00C9F26E00ADF2BDF4FAF48B9DF25A71
S1134AF8F2C3ADF0BDF4FAF48DF29BC9F021FFC9FD
S1134B08F221FFADF2BDF4FAF48B9DF25AF206AD30
S1134B18F0BDF4FAF48DF29BC9F023FFC9F223FF28
S1134B28ADF2BDF4FAF48B9DF25AF2FEADF0BDF489
S1134B38FAF48DF29BC9F024FFC9F224FFADF2BD4B
S1134B48F4FAF48B9DF25AF2F1ADF0BDF4FAF48D57
S1134B58F29BC9F025FFC9F225FFADF2BDF4FAF4C2
S1134B688B9DF25AF2E0ADF0BDF4FAF48DF29BC9D4
S1134B78F026FFC9F226FFADF2BDF4FAF48B9DF2DC
S1134B885AF2FCADF0BDF4FAF48DF29BC9F027FF9C
S1134B98ADF0BDF2FAF28B9DF0C9F027FFADF0BD80
S1134BA8F4FAF4F19BC9F02CFFC9F22CFFADF2BD65
S1134BB8F4FAF48B9DF25AF2FEADF0BDF4FAF48DDA
S1134BC8F29BC9F02EFFADF0BDF2FAF28B9DF0C94D
S1134BD8F02EFFADF0BDF4FAF4F19BC9F022FFAD5D
S1134BE8F0BDF4FAF48B9DF25AF2FDADF08DF29B10
S1134BF8C9F02CFFADF0BDF4FAF48B9DF25AF2DF44
S1134C08ADF08DF29BC9F00DFFADF0BDF4FAF48B55
S1134C189DF26AF201ADF08DF29BC9F002FFADF08E
S1134C28BDF4FAF48B9DF26AF202ADF08DF29BC9E1
S1134C38F00CFFADF0BDF4FAF48B9DF26AF220ADEE
S1134C48F08DF29BC9F07600ADF0BDF2FAF2510294
S1134C589BC9F022FFC9F222FFADF2BDF4FAF48B2E
S1134C689DF25AF2FDADF0BDF4FAF48DF29BC9F051
S1134C784CFFADF0BDF4FAF48B9DF25AF2BFADF0DF
S1134C888DF29BC9F041FFC9F241FFADF2BDF4FAC0
S1134C98F48B9DF2ADF0BDF4FAF48DF29BC9F042A9
S1134CA8FFADF0BDF2FAF251079BC9F043FFADF036
S1134CB8BDF4FAF4510E9BF6B800ECCD4C00A800F4
S1134CC8BDF0A1B800A800442C0161E3ECC64C0077
S1134CD81002D7C9F041FFADF0BDF4FAF48B9DF290
S1134CE86AF280ADF08DF29BD7C9F041FFADF0BDFB
S1134CF8F4FAF48B9DF25AF27FADF08DF29BD72033
S1134D0802C9F041FFADF0BDF4FAF48B9DF26AF2EA
S1134D1820ADF08DF29BF6B800EC2C4D00A800BD38
S1134D28F0A1B800A80044307561E3EC254D00C932
S1134D38F041FFADF0BDF4FAF48B9DF26AF240AD98
S1134D48F08DF29B1002D7C9F041FFADF0BDF4FA23
S1134D58F48B9DF25AF2BFADF08DF29BC9F041FF7E
S1134D68ADF0BDF4FAF48B9DF25AF2DFADF08DF29A
S1134D789BD7D7C9F0F000ADF0BDF4FAF48B9DF2DF
S1134D886AF204ADF08DF29B00000000C9F0260120
S1134D98ADF0BDF2FAF2302200BBFCA74D00D7619A
S1134DA8EFC161CFC9E82401C9F62401ADF6BDF00D
S1134DB8FAF0ABBDF68DF66C039DF48DF76C009D8F
S1134DC8F5FAE8ADF4BBC9F4E5FFADF4BDF2FAF2C7
S1134DD88B9DF66AF604ADF4BDF08DF69BC9F4E13B
S1134DE8FFADF4BDF2FAF28B9DF65AF6FBADF4BDB5
S1134DF8F08DF69BC9F4E5FFADF4BDF2FAF28B9D94
S1134E08F66AF608ADF4BDF08DF69BC9F4E1FFAD82
S1134E18F4BDF2FAF28B9DF65AF6F7ADF4BDF08DB7
S1134E28F69BC9F4E5FFADF4BDF2FAF28B9DF66A80
S1134E38F610ADF4BDF08DF69BC9F4E1FFADF4BDF9
S1134E48F2FAF28B9DF65AF6EFADF4BDF08DF69BAF
S1134E58C9F4EDFFADF4BDF2FAF28B9DF66AF604DF
S1134E68ADF4BDF08DF69BC9F4E9FFADF4BDF2FADB
S1134E78F28B9DF66AF604ADF4BDF08DF69BC9F489
S1134E88EDFFADF4BDF2FAF28B9DF66AF608ADF4C7
S1134E98BDF08DF69BC9F4E9FFADF4BDF2FAF28BCF
S1134EA89DF66AF608ADF4BDF08DF69BC9F41001C1
S1134EB8ADF4BDF2FAF2302200BBC9F41801ADF426
S1134EC8BDF0FAF0309780BBC9F410FFADF4BDF221
S1134ED8FAF230009ABBC9F47000C9F67000ADF656
S1134EE8BDF0FAF08B9DF66AF601ADF4BDF2FAF264
S1134EF88DF69BC9F40A01ADF4BDF0FAF030070051
S1134F08BBC9F41201ADF4BDF2FAF2302201BBC9F7
S1134F18F41A01ADF4BDF0FAF0309740BBC9F412AD
S1134F28FFADF4BDF2FAF230009ABBC9F62801C904
S1134F38F42801ADF4BDF0FAF0ABBDF48DF46C01C6
S1134F489DF28DF56C009DF3ADF6BDF4FAF4ADF267
S1134F58BBC9F43401C9F23401ADF2BDF0FAF0ABC7
S1134F68BDF2ADF4BDF0FAF0ADF2BBC9F42A01C943
S1134F78F22A01ADF2BDF0FAF0ABBDF28DF26C018C
S1134F889DF08DF36C009DF1ADF4BDF2FAF2ADF035
S1134F98BBC9F00303C9F20303ADF2BDF4FAF48B01
S1134FA89DF25AF2DFADF0BDF4FAF48DF29BC9F02C
S1134FB821FFC9F221FFADF2BDF4FAF48B9DF26A28
S1134FC8F202ADF0BDF4FAF48DF29BC9F00303C903
S1134FD8F20303ADF2BDF4FAF48B9DF25AF2BFADBD
S1134FE8F0BDF4FAF48DF29BC9F001FFC9F201FF98
S1134FF8ADF2BDF4FAF48B9DF26AF204ADF0BDF49F
S1135008FAF48DF29BC9F021FFC9F221FFADF2BD7C
S1135018F4FAF48B9DF25AF2FBADF0BDF4FAF48D78
S1135028F29B61EFC061CFD761EFC161CFC9F6E1EF
S1135038FFADF6BDF0FAF08B9DE85AE8FBADF6BD7E
S1135048F28DE89BC9F6E5FFADF6BDF0FAF08B9D4D
S1135058E85AE8FBADF6BDF28DE89BC9F6E1FFAD71
S1135068F6BDF0FAF08B9DE85AE8F7ADF6BDF28D7F
S1135078E89BC9F6E5FFADF6BDF0FAF08B9DE85A5A
S1135088E8F7ADF6BDF28DE89BC9E82801C9F62812
S113509801ADF6BDF0FAF0ABBDF68DF66C019DF4EA
S11350A88DF76C009DF5FAE8ADF4BBC9F62A01C981
S11350B8F42A01ADF4BDF2FAF2ABBDF48DF46C013F
S11350C89DF28DF56C009DF3ADF6BDF0FAF0ADF2EE
S11350D8BBC9F42201C9F22201ADF2BDF0FAF0AB6A
S11350E8BDF28DF26C039DF08DF36C009DF1ADF46F
S11350F8BDF2FAF2ADF0BB61EFC061CFD7C9F624B7
S113510801C9F42401ADF4BDF0FAF0ABBDF48DF49B
S11351186C039DF28DF56C009DF3ADF6BDF4FAF4C5
S1135128ADF2BBC9F42A01C9F22A01ADF2BDF0FA05
S1135138F0ABBDF28DF25CFE9DF08DF35CFF9DF14A
S1135148ADF4BDF2FAF2ADF0BBC9F0E5FFADF0BDC8
S1135158F4FAF48B9DF26AF204ADF08DF29BC9F077
S1135168E1FFADF0BDF4FAF48B9DF25AF2FBADF019
S11351788DF29BC9F0E5FFADF0BDF4FAF48B9DF216
S11351886AF208ADF08DF29BC9F0E1FFADF0BDF411
S1135198FAF48B9DF25AF2F7ADF08DF29BD7200802
S11351A8F6B806A80E44000061E8ECBF510030814F
S11351B800B806EC3C5200A80CBDF0BF6AFCA80E6F
S11351C8BDF0BF64FCC9F0E5FFADF0BDF4FAF48BA3
S11351D89DF26AF204ADF08DF29BC9F210FFAF6A3A
S11351E8FCBDF0BDF4FAF48B9DF0ADF2BDF4FAF415
S11351F88DF09BAF6AFCBDF0A6F0ADF0BF6AFCAFC2
S113520864FCBDF0B804BDF4B802B1BDF0BF64FCE1
S1135218C9F0E5FFADF0BDF4FAF48B9DF25AF2FB48
S1135228ADF08DF29B00AF64FCBDF044000061E872
S1135238EC2E5200A806BDF0B800BDF01008D761E6
S1135248EFC1C3C561CF200AC9F2F000ADF2BDF4C5
S1135258FAF48B9DF06AF001ADF28DF09BC9F0B6BB
S113526801ADF0BDF2FAF230F730BBC9F0B401ADCC
S1135278F0BDF4FAF430FF0ABBC9F2EDFFADF2BD9C
S1135288F4FAF48B9DF06AF040ADF28DF09BC9F20C
S1135298E9FFADF2BDF4FAF48B9DF06AF040ADF28B
S11352A88DF09BC9F2EDFFADF2BDF4FAF48B9DF0DD
S11352B86AF010ADF28DF09BC9F2E9FFADF2BDF4CE
S11352C8FAF48B9DF06AF010ADF28DF09BC9F2EE02
S11352D8FFADF2BDF4FAF48B9DF06AF008ADF28DDF
S11352E8F09BC9F2EAFFADF2BDF4FAF48B9DF06AC3
S11352F8F008ADF28DF09BC9F09001ADF0BDF2FA63
S1135308F2F6BBC9F018FFADF0BDF4FAF4301AB7E1
S1135318BBC9F2B801C9F0B801ADF0BDF4FAF4ABF9
S1135328BDF08DF05CFE9DF48DF15CFF9DF5ADF252
S1135338BDF0FAF0ADF4BBC9F2BA01C9F0BA01ADD7
S1135348F0BDF4FAF4ABBDF08DF05CFE9DF68DF182
S11353585CFF9DF7ADF2BDF0FAF0ADF6BBC9F09273
S113536801ADF0BDF2FAF23001C8BBC9F01BFFADC4
S1135378F0BDF4FAF451489BC9F2BE01C9F0BE016C
S1135388ADF0BDF4FAF4ABBDF08DF05CFD9DE88D95
S1135398F15CFF9DE9ADF2BDF0FAF0ADE8BBC9F2EE
S11353A8BC01C9F0BC01ADF0BDF4FAF4ABBDF08D9D
S11353B8F05CFD9DEA8DF15CFF9DEBADF2BDF0FA6A
S11353C8F0ADEABBC9F2B801C9F0B801ADF0BDF45B
S11353D8FAF4ABBDF08DF05CFD98088DF15CFF9894
S11353E809A808BDF4ADF2BDF0FAF0ADF4BBC9F2FA
S11353F8BA01C9F0BA01ADF0BDF4FAF4ABBDF08D51
S1135408F05CFD98068DF15CFF9807A806BDF4AD25
S1135418F2BDF0FAF0ADF4BBC9F09401ADF0BDF201
S1135428FAF2F6BBC9F064FFADF0BDF4FAF430B992
S1135438DBBBC9F2BE01C9F0BE01ADF0BDF4FAF49C
S1135448ABBDF08DF05CFB98048DF15CFF9805A86A
S113545804BDF4ADF2BDF0FAF0ADF4BBC9F2BC0181
S1135468C9F0BC01ADF0BDF4FAF4ABBDF08DF05C4D
S1135478FB98028DF15CFF9803A802BDF4ADF2BD60
S1135488F0FAF0ADF4BBC9F2B801C9F0B801ADF057
S1135498BDF4FAF4ABBDF08DF05CFB98008DF15CC3
S11354A8FF9801A800BDF4ADF2BDF0FAF0ADF4BB6D
S11354B8C9F2BA01C9F0BA01ADF0BDF4FAF4ABBD52
S11354C8F08DF05CFB9DEC8DF15CFF9DEDADF2BDC4
S11354D8F0FAF0ADECBB100A61EFC4C2C061CFD7DB
S11354E8C9F2E1FFADF2BDF0FAF08B9DF45AF4BFB6
S11354F8ADF28DF49BC9F2E5FFADF2BDF0FAF08B85
S11355089DF45AF4BFADF28DF49BC9F4B201C9F20B
S1135518B201ADF2BDF0FAF0ABBDF28DF26C019DB3
S1135528F08DF36C009DF1ADF4BDF2FAF2ADF0BB71
S1135538D7C9F4B401C9F2B401ADF2BDF0FAF0ABC5
S1135548BDF28DF26C019DF08DF36C009DF1ADF40C
S1135558BDF2FAF2ADF0BBC9F0E5FFADF0BDF4FA67
S1135568F48B9DF26AF240ADF08DF29BC9F0E1FF35
S1135578ADF0BDF4FAF48B9DF25AF2BFADF08DF2A2
S11355889BD7C9F2E1FFADF2BDF0FAF08B9DF45A56
S1135598F4EFADF28DF49BC9F2E5FFADF2BDF0FA7C
S11355A8F08B9DF45AF4EFADF28DF49BC9F4B2017B
S11355B8C9F2B201ADF2BDF0FAF0ABBDF28DF26CF6
S11355C8009DF08DF36C029DF1ADF4BDF2FAF2ADDD
S11355D8F0BBD7C9F4B401C9F2B401ADF2BDF0FA15
S11355E8F0ABBDF28DF26C009DF08DF36C029DF171
S11355F8ADF4BDF2FAF2ADF0BBC9F0E5FFADF0BD14
S1135608F4FAF48B9DF26AF210ADF08DF29BC9F0B6
S1135618E1FFADF0BDF4FAF48B9DF25AF2EFADF070
S11356288DF29BD7C9F2E2FFADF2BDF0FAF08B9D83
S1135638F45AF4F7ADF28DF49BC9F2E6FFADF2BD6E
S1135648F0FAF08B9DF45AF4F7ADF28DF49BC9F49B
S1135658B201C9F2B201ADF2BDF0FAF0ABBDF28D00
S1135668F26C049DF08DF36C009DF1ADF4BDF2FA7B
S1135678F2ADF0BBD7C9F4B401C9F2B401ADF2BDBF
S1135688F0FAF0ABBDF28DF26C049DF08DF36C0072
S11356989DF1ADF4BDF2FAF2ADF0BBC9F0E6FFAD91
S11356A8F0BDF4FAF48B9DF26AF208ADF08DF29B2A
S11356B8C9F0E2FFADF0BDF4FAF48B9DF25AF2F7AB
S11356C8ADF08DF29BD761CFC1C3C5C761DFC1C33C
S11356D8C5C761EFC761CF200A8F5CFC9DF0819D2F
S11356E8F19F5CFC4AF00161E8EC125700AFD8F96D
S11356F8BDF0C80033B802FC8F3B00F55CFCAFD8A2
S1135708F9BDF0A6F0ADF0BFD8F9AFD8F9BDF0BD3A
S1135718F2FAF28B9DF0D4F061E8EC8657008F5DC5
S1135728FC9DF0705100B808BDF4B80601B804BD7A
S1135738F0B806314DBDF0A80616ADF027BDF0044B
S113574860F9BDF0BFD8F98F5DFC9DF0A4F08DF031
S11357589F5DFC9DF04AF00461E8EC695700F55D33
S1135768FC8FDAF99DF05AF001D4F061F8EC865711
S1135778008FDAF99DF05AF0FB8DF09FDAF9C9F041
S1135788E1FFADF0BDF4FAF48B9DF25AF2BFADF02F
S11357988DF29B100A61EFC661DFC6C4C2C061CF37
S11357A8C6C4C2C061FC61CFC1C3C5C761DFC1C380
S11357B8C5C761EFC761CF2006AF5CF9BDF044638C
S11357C80061E3ECEE5700AF5CF9BDF0B80030645B
S11357D800B802FC476000ADF0B80488049DF09F4F
S11357E85EFCECF15700E55EFC8F5FFC9DF04AF02F
S11357F80161E8EC3858008F60FC9DF0A4F08DF04E
S11358089F60FC9DF18F5EFC9DF08DF14BF061E88B
S1135818EC385800303131B800FC2334003030669D
S1135828B800FC233400F55FFCF560FCEC8F5800ED
S11358388F5FFC9DF0D4F061E8EC7E58008F60FC2B
S11358489DF0A4F08DF09F60FC9DF18F5EFC9DF0AF
S11358588DF14BF061E8EC7E5800303031B800FC33
S1135868233400303165B800FC233400E55FFCF5CF
S113587860FCEC8F58008F60FC9DF04AF00A61E8E8
S1135888EC8F5800F560FCC9F0E2FFADF0BDF4FA06
S1135898F48B9DF25AF2FBADF08DF29B100661EF8A
S11358A8C661DFC6C4C2C061CFC6C4C2C061FC61E0
S11358B8CFC1C3C5C761DFC1C3C5C761EFC761CF66
S11358C82006C805008F61FC9DF0A4F08DF09F614F
S11358D8FC9DF04AF05061E8ECF85800C805018FC7
S11358E862FC9DF04AF00461E8ECF85800F562FCAB
S11358F88FDBF99DF0CDF100ADF044020061F8ECC6
S11359086F5900ADF044020071FF61F3EC275900B0
S1135918ADF044010061F8EC415900ECD35900ADF5
S1135928F044030061F8EC9A5900ADF044040061B6
S1135938F8ECC55900ECD35900C80001C80200FCB2
S11359483E2D00C9F00E04C9F20E04ADF2BDF4FAFE
S1135958F48B9DF25AF2FEADF0BDF4FAF48DF29B8D
S1135968E563FCECD35900C80002C80200FC3E2DD4
S113597800C9F00E04C9F20E04ADF2BDF4FAF48BBA
S11359889DF25AF2FEADF0BDF4FAF48DF29BECD31D
S11359985900C80003C80200FC3E2D00C9F00E04DB
S11359A8C9F20E04ADF2BDF4FAF48B9DF25AF2FE7C
S11359B8ADF0BDF4FAF48DF29BECD35900C80004A1
S11359C8C80200FC3E2D00F563FC008F63FC9DF0CB
S11359D84AF00161E8ECF159008FDBF99DF0A4F07D
S11359E88DF09FDBF9ECFD59008FDBF99DF0B4F0E5
S11359F88DF09FDBF9C9F0E2FFADF0BDF4FAF48B4A
S1135A089DF25AF2F7ADF08DF29B100661EFC66174
S1135A18DFC6C4C2C061CFC6C4C2C061FCC9F077C6
S1135A2800ADF0BDF2FAF2F19BFCE84900FC5C44DD
S1135A3800FC6D4200FC475200FCBD4700FC0745D2
S1135A4800C9F0F002ADF0BDF2FAF2F19BC9F078AA
S1135A5800ADF0BDF2FAF2F19BC9F0F500ADF0BD6E
S1135A68F2FAF251809BD7715ACBF800FE410061DB
S1135A78CF34A4693600F961DF3600F930DCF92740
S1135A88311E440000DD0EB161CF11A9BBA5A5A745
S1135A98A761DFEFED61CF36DCF930000061DF305C
S1135AA8BAFD27311E440000DD0AB161CFBBA7A7A8
S1135AB861DFEFF161CFFCBA1D0000300000C1C105
S1135AC8C1FCB40500EFFE61EFC1C361CF20388883
S1135AD8409DF488419DF588429DF688439DF7884A
S1135AE8449DF088459DF188469DF288479DF38D35
S1135AF8F4981C8DF5981D8DF6981E8DF7981F8DBA
S1135B08F098208DF198218DF298228DF39823AE88
S1135B18F8043800BDF004E4FFB800ADF004ECFF6D
S1135B28B802FC926500AEF8043800BDF204E8FF40
S1135B38B800ADF204F6FFB802FC926500A824BDD3
S1135B48F044010061F3EC6A5B00AEF8042400BD84
S1135B58F0ADF0B800FC096200103861EFC2C06112
S1135B68CFD7A82EBDF244010061F3EC825B00AEEE
S1135B78F8042E00BDF0EC595B0088307688266165
S1135B887E98268831768827617E9827ADF044046C
S1135B980061F8ECA85B0044020061E8ECBA5B0021
S1135BA8ADF046F261E8EC525B00C9F09A68EC5932
S1135BB85B00ADF244040061F8ECCE5C00440200E2
S1135BC861F8ECE25C00A83216A82827BDF0B828D2
S1135BD8A82ABDE8A82CBDEAA834B80CA836B80E83
S1135BE8A80CBDF2A80EBDF4ADEA46F4ADE861F820
S1135BF846F261C8EC115C00ADE8311DBDE8ADEAC0
S1135C0861EEBDEAADF0B1B828C9F01F00F6B814CA
S1135C18300040B816F6B804F6B806A814BDF4A8BF
S1135C2816BDF6A80E46EAA80C61F846E861F3EC3E
S1135C386F5C0088046BF4980888056BF5980988EC
S1135C48066BF6980A88076BF7980BA808B804A897
S1135C580AB806FBF8FFADE861290CBDE8ADEA61B6
S1135C68D8B161290EBDEAADF6311EBDF68DF561D8
S1135C78FB9DF58DF461FB9DF4ADE8311DBDE8ADE8
S1135C88EA61EEBDEAB6F0ADF044000061E8EC2B41
S1135C985C0088045C7F9810C811008811981298D9
S1135CA813A812440000A81061F844400061F8ECFD
S1135CB8EB5C00A804B82AA806B82CAEF8042400A3
S1135CC8BDF0EC595B00F6B82AF6B82CF6B828AE45
S1135CD8F8042400BDF0EC595B00300400B824EC4F
S1135CE8525B0088045C8098188813981988139864
S1135CF81A8813981BA81A440000A81861F84400CD
S1135D080061E8ECBB5C00ADEA440000ADE861F872
S1135D1844000061F8ECBB5C00A804044000BDF03A
